{"abi":[{"type":"constructor","inputs":[{"name":"paymentToken_","type":"address","internalType":"address"},{"name":"name_","type":"string","internalType":"string"},{"name":"symbol_","type":"string","internalType":"string"},{"name":"baseTokenURI_","type":"string","internalType":"string"},{"name":"platformAddress_","type":"address","internalType":"address"},{"name":"platformCommissionPercentage_","type":"uint96","internalType":"uint96"},{"name":"adminAddress_","type":"address","internalType":"address"}],"stateMutability":"nonpayable"},{"type":"function","name":"DEFAULT_ADMIN_ROLE","inputs":[],"outputs":[{"name":"","type":"bytes32","internalType":"bytes32"}],"stateMutability":"view"},{"type":"function","name":"OWNER_ROLE","inputs":[],"outputs":[{"name":"","type":"bytes32","internalType":"bytes32"}],"stateMutability":"view"},{"type":"function","name":"PAYMENT_TOKEN","inputs":[],"outputs":[{"name":"","type":"address","internalType":"contract IERC20"}],"stateMutability":"view"},{"type":"function","name":"PLATFORM_ROLE","inputs":[],"outputs":[{"name":"","type":"bytes32","internalType":"bytes32"}],"stateMutability":"view"},{"type":"function","name":"RENTER_ROLE","inputs":[],"outputs":[{"name":"","type":"bytes32","internalType":"bytes32"}],"stateMutability":"view"},{"type":"function","name":"approve","inputs":[{"name":"to","type":"address","internalType":"address"},{"name":"tokenId","type":"uint256","internalType":"uint256"}],"outputs":[],"stateMutability":"nonpayable"},{"type":"function","name":"balanceOf","inputs":[{"name":"owner","type":"address","internalType":"address"}],"outputs":[{"name":"","type":"uint256","internalType":"uint256"}],"stateMutability":"view"},{"type":"function","name":"burn","inputs":[{"name":"tokenId","type":"uint256","internalType":"uint256"}],"outputs":[],"stateMutability":"nonpayable"},{"type":"function","name":"burnWithSignature","inputs":[{"name":"tokenId","type":"uint256","internalType":"uint256"},{"name":"deadline","type":"uint256","internalType":"uint256"},{"name":"signature","type":"bytes","internalType":"bytes"}],"outputs":[],"stateMutability":"nonpayable"},{"type":"function","name":"eip712Domain","inputs":[],"outputs":[{"name":"fields","type":"bytes1","internalType":"bytes1"},{"name":"name","type":"string","internalType":"string"},{"name":"version","type":"string","internalType":"string"},{"name":"chainId","type":"uint256","internalType":"uint256"},{"name":"verifyingContract","type":"address","internalType":"address"},{"name":"salt","type":"bytes32","internalType":"bytes32"},{"name":"extensions","type":"uint256[]","internalType":"uint256[]"}],"stateMutability":"view"},{"type":"function","name":"endRental","inputs":[{"name":"tokenId","type":"uint256","internalType":"uint256"}],"outputs":[],"stateMutability":"nonpayable"},{"type":"function","name":"endRentalWithSignature","inputs":[{"name":"tokenId","type":"uint256","internalType":"uint256"},{"name":"renter","type":"address","internalType":"address"},{"name":"deadline","type":"uint256","internalType":"uint256"},{"name":"signature","type":"bytes","internalType":"bytes"}],"outputs":[],"stateMutability":"nonpayable"},{"type":"function","name":"exists","inputs":[{"name":"tokenId","type":"uint256","internalType":"uint256"}],"outputs":[{"name":"","type":"bool","internalType":"bool"}],"stateMutability":"view"},{"type":"function","name":"extendRental","inputs":[{"name":"tokenId","type":"uint256","internalType":"uint256"},{"name":"additionalDuration","type":"uint256","internalType":"uint256"},{"name":"additionalPayment","type":"uint256","internalType":"uint256"}],"outputs":[],"stateMutability":"nonpayable"},{"type":"function","name":"extendRentalWithSignature","inputs":[{"name":"tokenId","type":"uint256","internalType":"uint256"},{"name":"additionalDuration","type":"uint256","internalType":"uint256"},{"name":"additionalPayment","type":"uint256","internalType":"uint256"},{"name":"renter","type":"address","internalType":"address"},{"name":"deadline","type":"uint256","internalType":"uint256"},{"name":"signature","type":"bytes","internalType":"bytes"}],"outputs":[],"stateMutability":"nonpayable"},{"type":"function","name":"getApproved","inputs":[{"name":"tokenId","type":"uint256","internalType":"uint256"}],"outputs":[{"name":"","type":"address","internalType":"address"}],"stateMutability":"view"},{"type":"function","name":"getMintRoyaltyReceivers","inputs":[{"name":"tokenId","type":"uint256","internalType":"uint256"}],"outputs":[{"name":"","type":"tuple[]","internalType":"struct KamiNFTCore.RoyaltyData[]","components":[{"name":"receiver","type":"address","internalType":"address"},{"name":"feeNumerator","type":"uint96","internalType":"uint96"}]}],"stateMutability":"view"},{"type":"function","name":"getRentalInfo","inputs":[{"name":"tokenId","type":"uint256","internalType":"uint256"}],"outputs":[{"name":"","type":"tuple","internalType":"struct KamiNFTCore.Rental","components":[{"name":"renter","type":"address","internalType":"address"},{"name":"startTime","type":"uint256","internalType":"uint256"},{"name":"endTime","type":"uint256","internalType":"uint256"},{"name":"rentalPrice","type":"uint256","internalType":"uint256"},{"name":"active","type":"bool","internalType":"bool"}]}],"stateMutability":"view"},{"type":"function","name":"getRoleAdmin","inputs":[{"name":"role","type":"bytes32","internalType":"bytes32"}],"outputs":[{"name":"","type":"bytes32","internalType":"bytes32"}],"stateMutability":"view"},{"type":"function","name":"getTransferRoyaltyReceivers","inputs":[{"name":"tokenId","type":"uint256","internalType":"uint256"}],"outputs":[{"name":"","type":"tuple[]","internalType":"struct KamiNFTCore.RoyaltyData[]","components":[{"name":"receiver","type":"address","internalType":"address"},{"name":"feeNumerator","type":"uint96","internalType":"uint96"}]}],"stateMutability":"view"},{"type":"function","name":"grantRole","inputs":[{"name":"role","type":"bytes32","internalType":"bytes32"},{"name":"account","type":"address","internalType":"address"}],"outputs":[],"stateMutability":"nonpayable"},{"type":"function","name":"hasRole","inputs":[{"name":"role","type":"bytes32","internalType":"bytes32"},{"name":"account","type":"address","internalType":"address"}],"outputs":[{"name":"","type":"bool","internalType":"bool"}],"stateMutability":"view"},{"type":"function","name":"initiateTransferWithRoyalty","inputs":[{"name":"to","type":"address","internalType":"address"},{"name":"tokenId","type":"uint256","internalType":"uint256"},{"name":"price","type":"uint256","internalType":"uint256"}],"outputs":[],"stateMutability":"nonpayable"},{"type":"function","name":"initiateTransferWithRoyaltyWithSignature","inputs":[{"name":"to","type":"address","internalType":"address"},{"name":"tokenId","type":"uint256","internalType":"uint256"},{"name":"price","type":"uint256","internalType":"uint256"},{"name":"deadline","type":"uint256","internalType":"uint256"},{"name":"signature","type":"bytes","internalType":"bytes"}],"outputs":[],"stateMutability":"nonpayable"},{"type":"function","name":"isApprovedForAll","inputs":[{"name":"owner","type":"address","internalType":"address"},{"name":"operator","type":"address","internalType":"address"}],"outputs":[{"name":"","type":"bool","internalType":"bool"}],"stateMutability":"view"},{"type":"function","name":"isRented","inputs":[{"name":"tokenId","type":"uint256","internalType":"uint256"}],"outputs":[{"name":"","type":"bool","internalType":"bool"}],"stateMutability":"view"},{"type":"function","name":"isTransferRoyaltyRequired","inputs":[{"name":"","type":"address","internalType":"address"},{"name":"","type":"address","internalType":"address"},{"name":"tokenId","type":"uint256","internalType":"uint256"},{"name":"price","type":"uint256","internalType":"uint256"}],"outputs":[{"name":"","type":"bool","internalType":"bool"}],"stateMutability":"view"},{"type":"function","name":"mint","inputs":[{"name":"recipient","type":"address","internalType":"address"},{"name":"tokenPrice","type":"uint256","internalType":"uint256"},{"name":"uri","type":"string","internalType":"string"},{"name":"mintRoyalties","type":"tuple[]","internalType":"struct KamiNFTCore.RoyaltyData[]","components":[{"name":"receiver","type":"address","internalType":"address"},{"name":"feeNumerator","type":"uint96","internalType":"uint96"}]}],"outputs":[],"stateMutability":"nonpayable"},{"type":"function","name":"mintFor","inputs":[{"name":"recipient","type":"address","internalType":"address"},{"name":"tokenPrice","type":"uint256","internalType":"uint256"},{"name":"uri","type":"string","internalType":"string"},{"name":"mintRoyalties","type":"tuple[]","internalType":"struct KamiNFTCore.RoyaltyData[]","components":[{"name":"receiver","type":"address","internalType":"address"},{"name":"feeNumerator","type":"uint96","internalType":"uint96"}]}],"outputs":[],"stateMutability":"nonpayable"},{"type":"function","name":"name","inputs":[],"outputs":[{"name":"","type":"string","internalType":"string"}],"stateMutability":"view"},{"type":"function","name":"ownerOf","inputs":[{"name":"tokenId","type":"uint256","internalType":"uint256"}],"outputs":[{"name":"","type":"address","internalType":"address"}],"stateMutability":"view"},{"type":"function","name":"pause","inputs":[],"outputs":[],"stateMutability":"nonpayable"},{"type":"function","name":"paused","inputs":[],"outputs":[{"name":"","type":"bool","internalType":"bool"}],"stateMutability":"view"},{"type":"function","name":"payTransferRoyalty","inputs":[{"name":"seller","type":"address","internalType":"address"},{"name":"tokenId","type":"uint256","internalType":"uint256"},{"name":"price","type":"uint256","internalType":"uint256"}],"outputs":[],"stateMutability":"nonpayable"},{"type":"function","name":"payTransferRoyaltyWithSignature","inputs":[{"name":"seller","type":"address","internalType":"address"},{"name":"tokenId","type":"uint256","internalType":"uint256"},{"name":"price","type":"uint256","internalType":"uint256"},{"name":"buyer","type":"address","internalType":"address"},{"name":"deadline","type":"uint256","internalType":"uint256"},{"name":"signature","type":"bytes","internalType":"bytes"}],"outputs":[],"stateMutability":"nonpayable"},{"type":"function","name":"paymentToken","inputs":[],"outputs":[{"name":"","type":"address","internalType":"address"}],"stateMutability":"view"},{"type":"function","name":"platformAddress","inputs":[],"outputs":[{"name":"","type":"address","internalType":"address"}],"stateMutability":"view"},{"type":"function","name":"platformCommission","inputs":[],"outputs":[{"name":"","type":"uint96","internalType":"uint96"}],"stateMutability":"view"},{"type":"function","name":"renounceRole","inputs":[{"name":"role","type":"bytes32","internalType":"bytes32"},{"name":"callerConfirmation","type":"address","internalType":"address"}],"outputs":[],"stateMutability":"nonpayable"},{"type":"function","name":"rentToken","inputs":[{"name":"tokenId","type":"uint256","internalType":"uint256"},{"name":"duration","type":"uint256","internalType":"uint256"},{"name":"rentalPrice","type":"uint256","internalType":"uint256"},{"name":"renter","type":"address","internalType":"address"}],"outputs":[],"stateMutability":"nonpayable"},{"type":"function","name":"rentTokenWithSignature","inputs":[{"name":"tokenId","type":"uint256","internalType":"uint256"},{"name":"duration","type":"uint256","internalType":"uint256"},{"name":"rentalPrice","type":"uint256","internalType":"uint256"},{"name":"renter","type":"address","internalType":"address"},{"name":"deadline","type":"uint256","internalType":"uint256"},{"name":"signature","type":"bytes","internalType":"bytes"}],"outputs":[],"stateMutability":"nonpayable"},{"type":"function","name":"revokeRole","inputs":[{"name":"role","type":"bytes32","internalType":"bytes32"},{"name":"account","type":"address","internalType":"address"}],"outputs":[],"stateMutability":"nonpayable"},{"type":"function","name":"royaltyInfo","inputs":[{"name":"tokenId","type":"uint256","internalType":"uint256"},{"name":"price","type":"uint256","internalType":"uint256"}],"outputs":[{"name":"receiver","type":"address","internalType":"address"},{"name":"royaltyAmount","type":"uint256","internalType":"uint256"}],"stateMutability":"view"},{"type":"function","name":"royaltyPercentage","inputs":[],"outputs":[{"name":"","type":"uint96","internalType":"uint96"}],"stateMutability":"view"},{"type":"function","name":"safeTransferFrom","inputs":[{"name":"from","type":"address","internalType":"address"},{"name":"to","type":"address","internalType":"address"},{"name":"tokenId","type":"uint256","internalType":"uint256"}],"outputs":[],"stateMutability":"nonpayable"},{"type":"function","name":"safeTransferFrom","inputs":[{"name":"from","type":"address","internalType":"address"},{"name":"to","type":"address","internalType":"address"},{"name":"tokenId","type":"uint256","internalType":"uint256"},{"name":"data","type":"bytes","internalType":"bytes"}],"outputs":[],"stateMutability":"nonpayable"},{"type":"function","name":"sellToken","inputs":[{"name":"to","type":"address","internalType":"address"},{"name":"tokenId","type":"uint256","internalType":"uint256"},{"name":"seller","type":"address","internalType":"address"}],"outputs":[],"stateMutability":"nonpayable"},{"type":"function","name":"sellTokenWithSignature","inputs":[{"name":"to","type":"address","internalType":"address"},{"name":"tokenId","type":"uint256","internalType":"uint256"},{"name":"deadline","type":"uint256","internalType":"uint256"},{"name":"signature","type":"bytes","internalType":"bytes"}],"outputs":[],"stateMutability":"nonpayable"},{"type":"function","name":"setApprovalForAll","inputs":[{"name":"operator","type":"address","internalType":"address"},{"name":"approved","type":"bool","internalType":"bool"}],"outputs":[],"stateMutability":"nonpayable"},{"type":"function","name":"setBaseURI","inputs":[{"name":"newBaseTokenURI","type":"string","internalType":"string"}],"outputs":[],"stateMutability":"nonpayable"},{"type":"function","name":"setMintRoyalties","inputs":[{"name":"royalties","type":"tuple[]","internalType":"struct KamiNFTCore.RoyaltyData[]","components":[{"name":"receiver","type":"address","internalType":"address"},{"name":"feeNumerator","type":"uint96","internalType":"uint96"}]}],"outputs":[],"stateMutability":"nonpayable"},{"type":"function","name":"setPlatformCommission","inputs":[{"name":"newPlatformCommissionPercentage","type":"uint96","internalType":"uint96"},{"name":"newPlatformAddress","type":"address","internalType":"address"}],"outputs":[],"stateMutability":"nonpayable"},{"type":"function","name":"setPrice","inputs":[{"name":"tokenId","type":"uint256","internalType":"uint256"},{"name":"newPrice","type":"uint256","internalType":"uint256"}],"outputs":[],"stateMutability":"nonpayable"},{"type":"function","name":"setRoyaltyPercentage","inputs":[{"name":"newRoyaltyPercentage","type":"uint96","internalType":"uint96"}],"outputs":[],"stateMutability":"nonpayable"},{"type":"function","name":"setTokenMintRoyalties","inputs":[{"name":"tokenId","type":"uint256","internalType":"uint256"},{"name":"royalties","type":"tuple[]","internalType":"struct KamiNFTCore.RoyaltyData[]","components":[{"name":"receiver","type":"address","internalType":"address"},{"name":"feeNumerator","type":"uint96","internalType":"uint96"}]}],"outputs":[],"stateMutability":"nonpayable"},{"type":"function","name":"setTokenTransferRoyalties","inputs":[{"name":"tokenId","type":"uint256","internalType":"uint256"},{"name":"royalties","type":"tuple[]","internalType":"struct KamiNFTCore.RoyaltyData[]","components":[{"name":"receiver","type":"address","internalType":"address"},{"name":"feeNumerator","type":"uint96","internalType":"uint96"}]}],"outputs":[],"stateMutability":"nonpayable"},{"type":"function","name":"setTokenURI","inputs":[{"name":"tokenId","type":"uint256","internalType":"uint256"},{"name":"newTokenURI","type":"string","internalType":"string"}],"outputs":[],"stateMutability":"nonpayable"},{"type":"function","name":"setTokenURIWithSignature","inputs":[{"name":"tokenId","type":"uint256","internalType":"uint256"},{"name":"newTokenURI","type":"string","internalType":"string"},{"name":"deadline","type":"uint256","internalType":"uint256"},{"name":"signature","type":"bytes","internalType":"bytes"}],"outputs":[],"stateMutability":"nonpayable"},{"type":"function","name":"setTransferRoyalties","inputs":[{"name":"royalties","type":"tuple[]","internalType":"struct KamiNFTCore.RoyaltyData[]","components":[{"name":"receiver","type":"address","internalType":"address"},{"name":"feeNumerator","type":"uint96","internalType":"uint96"}]}],"outputs":[],"stateMutability":"nonpayable"},{"type":"function","name":"supportsInterface","inputs":[{"name":"interfaceId","type":"bytes4","internalType":"bytes4"}],"outputs":[{"name":"","type":"bool","internalType":"bool"}],"stateMutability":"view"},{"type":"function","name":"symbol","inputs":[],"outputs":[{"name":"","type":"string","internalType":"string"}],"stateMutability":"view"},{"type":"function","name":"tokenByIndex","inputs":[{"name":"index","type":"uint256","internalType":"uint256"}],"outputs":[{"name":"","type":"uint256","internalType":"uint256"}],"stateMutability":"view"},{"type":"function","name":"tokenOfOwnerByIndex","inputs":[{"name":"owner","type":"address","internalType":"address"},{"name":"index","type":"uint256","internalType":"uint256"}],"outputs":[{"name":"","type":"uint256","internalType":"uint256"}],"stateMutability":"view"},{"type":"function","name":"tokenPrices","inputs":[{"name":"","type":"uint256","internalType":"uint256"}],"outputs":[{"name":"","type":"uint256","internalType":"uint256"}],"stateMutability":"view"},{"type":"function","name":"tokenURI","inputs":[{"name":"tokenId","type":"uint256","internalType":"uint256"}],"outputs":[{"name":"","type":"string","internalType":"string"}],"stateMutability":"view"},{"type":"function","name":"tokenURIs","inputs":[{"name":"","type":"uint256","internalType":"uint256"}],"outputs":[{"name":"","type":"string","internalType":"string"}],"stateMutability":"view"},{"type":"function","name":"totalSupply","inputs":[],"outputs":[{"name":"","type":"uint256","internalType":"uint256"}],"stateMutability":"view"},{"type":"function","name":"transferFrom","inputs":[{"name":"from","type":"address","internalType":"address"},{"name":"to","type":"address","internalType":"address"},{"name":"tokenId","type":"uint256","internalType":"uint256"}],"outputs":[],"stateMutability":"nonpayable"},{"type":"function","name":"unpause","inputs":[],"outputs":[],"stateMutability":"nonpayable"},{"type":"function","name":"updatePlatformCommission","inputs":[{"name":"newPlatformCommissionPercentage","type":"uint96","internalType":"uint96"},{"name":"newPlatformAddress","type":"address","internalType":"address"}],"outputs":[],"stateMutability":"nonpayable"},{"type":"event","name":"Approval","inputs":[{"name":"owner","type":"address","indexed":true,"internalType":"address"},{"name":"approved","type":"address","indexed":true,"internalType":"address"},{"name":"tokenId","type":"uint256","indexed":true,"internalType":"uint256"}],"anonymous":false},{"type":"event","name":"ApprovalForAll","inputs":[{"name":"owner","type":"address","indexed":true,"internalType":"address"},{"name":"operator","type":"address","indexed":true,"internalType":"address"},{"name":"approved","type":"bool","indexed":false,"internalType":"bool"}],"anonymous":false},{"type":"event","name":"EIP712DomainChanged","inputs":[],"anonymous":false},{"type":"event","name":"Paused","inputs":[{"name":"account","type":"address","indexed":false,"internalType":"address"}],"anonymous":false},{"type":"event","name":"RoleAdminChanged","inputs":[{"name":"role","type":"bytes32","indexed":true,"internalType":"bytes32"},{"name":"previousAdminRole","type":"bytes32","indexed":true,"internalType":"bytes32"},{"name":"newAdminRole","type":"bytes32","indexed":true,"internalType":"bytes32"}],"anonymous":false},{"type":"event","name":"RoleGranted","inputs":[{"name":"role","type":"bytes32","indexed":true,"internalType":"bytes32"},{"name":"account","type":"address","indexed":true,"internalType":"address"},{"name":"sender","type":"address","indexed":true,"internalType":"address"}],"anonymous":false},{"type":"event","name":"RoleRevoked","inputs":[{"name":"role","type":"bytes32","indexed":true,"internalType":"bytes32"},{"name":"account","type":"address","indexed":true,"internalType":"address"},{"name":"sender","type":"address","indexed":true,"internalType":"address"}],"anonymous":false},{"type":"event","name":"Transfer","inputs":[{"name":"from","type":"address","indexed":true,"internalType":"address"},{"name":"to","type":"address","indexed":true,"internalType":"address"},{"name":"tokenId","type":"uint256","indexed":true,"internalType":"uint256"}],"anonymous":false},{"type":"event","name":"Unpaused","inputs":[{"name":"account","type":"address","indexed":false,"internalType":"address"}],"anonymous":false},{"type":"error","name":"AccessControlBadConfirmation","inputs":[]},{"type":"error","name":"AccessControlUnauthorizedAccount","inputs":[{"name":"account","type":"address","internalType":"address"},{"name":"neededRole","type":"bytes32","internalType":"bytes32"}]},{"type":"error","name":"AlreadyClaimed","inputs":[]},{"type":"error","name":"ApprovalToCurrentOwner","inputs":[]},{"type":"error","name":"ArrayLengthMismatch","inputs":[]},{"type":"error","name":"CallerNotOwner","inputs":[]},{"type":"error","name":"CallerNotTokenOwnerOrApproved","inputs":[]},{"type":"error","name":"CallerNotUpgrader","inputs":[]},{"type":"error","name":"ContractPaused","inputs":[]},{"type":"error","name":"ECDSAInvalidSignature","inputs":[]},{"type":"error","name":"ECDSAInvalidSignatureLength","inputs":[{"name":"length","type":"uint256","internalType":"uint256"}]},{"type":"error","name":"ECDSAInvalidSignatureS","inputs":[{"name":"s","type":"bytes32","internalType":"bytes32"}]},{"type":"error","name":"ERC2981InvalidDefaultRoyalty","inputs":[{"name":"numerator","type":"uint256","internalType":"uint256"},{"name":"denominator","type":"uint256","internalType":"uint256"}]},{"type":"error","name":"ERC2981InvalidDefaultRoyaltyReceiver","inputs":[{"name":"receiver","type":"address","internalType":"address"}]},{"type":"error","name":"ERC2981InvalidTokenRoyalty","inputs":[{"name":"tokenId","type":"uint256","internalType":"uint256"},{"name":"numerator","type":"uint256","internalType":"uint256"},{"name":"denominator","type":"uint256","internalType":"uint256"}]},{"type":"error","name":"ERC2981InvalidTokenRoyaltyReceiver","inputs":[{"name":"tokenId","type":"uint256","internalType":"uint256"},{"name":"receiver","type":"address","internalType":"address"}]},{"type":"error","name":"ERC721EnumerableForbiddenBatchMint","inputs":[]},{"type":"error","name":"ERC721IncorrectOwner","inputs":[{"name":"sender","type":"address","internalType":"address"},{"name":"tokenId","type":"uint256","internalType":"uint256"},{"name":"owner","type":"address","internalType":"address"}]},{"type":"error","name":"ERC721InsufficientApproval","inputs":[{"name":"operator","type":"address","internalType":"address"},{"name":"tokenId","type":"uint256","internalType":"uint256"}]},{"type":"error","name":"ERC721InvalidApprover","inputs":[{"name":"approver","type":"address","internalType":"address"}]},{"type":"error","name":"ERC721InvalidOperator","inputs":[{"name":"operator","type":"address","internalType":"address"}]},{"type":"error","name":"ERC721InvalidOwner","inputs":[{"name":"owner","type":"address","internalType":"address"}]},{"type":"error","name":"ERC721InvalidReceiver","inputs":[{"name":"receiver","type":"address","internalType":"address"}]},{"type":"error","name":"ERC721InvalidSender","inputs":[{"name":"sender","type":"address","internalType":"address"}]},{"type":"error","name":"ERC721NonexistentToken","inputs":[{"name":"tokenId","type":"uint256","internalType":"uint256"}]},{"type":"error","name":"ERC721OutOfBoundsIndex","inputs":[{"name":"owner","type":"address","internalType":"address"},{"name":"index","type":"uint256","internalType":"uint256"}]},{"type":"error","name":"EmptyArray","inputs":[]},{"type":"error","name":"EmptyTokenURI","inputs":[]},{"type":"error","name":"EnforcedPause","inputs":[]},{"type":"error","name":"ExpectedPause","inputs":[]},{"type":"error","name":"InsufficientPaymentAllowance","inputs":[]},{"type":"error","name":"InsufficientPaymentBalance","inputs":[]},{"type":"error","name":"InvalidDuration","inputs":[]},{"type":"error","name":"InvalidPlatformCommission","inputs":[]},{"type":"error","name":"InvalidPrice","inputs":[]},{"type":"error","name":"InvalidRecipient","inputs":[]},{"type":"error","name":"InvalidRentalPrice","inputs":[]},{"type":"error","name":"InvalidRoyaltyPercentage","inputs":[]},{"type":"error","name":"InvalidShortString","inputs":[]},{"type":"error","name":"InvalidSigner","inputs":[]},{"type":"error","name":"InvalidTokenId","inputs":[]},{"type":"error","name":"MintToZeroAddress","inputs":[]},{"type":"error","name":"OwnerCannotRentOwnToken","inputs":[]},{"type":"error","name":"QueryForNonexistentToken","inputs":[]},{"type":"error","name":"RentalNotActive","inputs":[]},{"type":"error","name":"RoyaltiesMustSumTo10000","inputs":[]},{"type":"error","name":"RoyaltyPercentageTooHigh","inputs":[]},{"type":"error","name":"SafeERC20FailedOperation","inputs":[{"name":"token","type":"address","internalType":"address"}]},{"type":"error","name":"SellerNotTokenOwner","inputs":[]},{"type":"error","name":"SignatureExpired","inputs":[]},{"type":"error","name":"StringTooLong","inputs":[{"name":"str","type":"string","internalType":"string"}]},{"type":"error","name":"TokenAlreadyMinted","inputs":[]},{"type":"error","name":"TokenDoesNotExist","inputs":[]},{"type":"error","name":"TokenPriceNotSet","inputs":[]},{"type":"error","name":"TooManyRecipients","inputs":[]},{"type":"error","name":"TransferFromIncorrectOwner","inputs":[]},{"type":"error","name":"TransferToNonERC721ReceiverImplementer","inputs":[]},{"type":"error","name":"TransferToZeroAddress","inputs":[]},{"type":"error","name":"ZeroAddress","inputs":[]}],"bytecode":{"object":"0x6101808060405234620007b357620067c08038038091620000218285620007d3565b833981019060e081830312620007b3576200003c81620007f7565b60208201519091906001600160401b038111620007b35783620000619183016200082f565b60408201519093906001600160401b038111620007b35781620000869184016200082f565b606083015190916001600160401b038211620007b357620000a99184016200082f565b90620000b860808401620007f7565b60a0840151939092906001600160601b0385168503620007b35760c0620000e09101620007f7565b9160405190620000f082620007b7565b60088252674b414d493732314360c01b6020830152604051976200011489620007b7565b60018952603160f81b60208a01528051906001600160401b0382116200058c5760015490600182811c92168015620007a8575b60208310146200056d5781601f8493116200074a575b50602090601f8311600114620006cf575f92620006c3575b50508160011b915f199060031b1c1916176001555b8051906001600160401b0382116200058c5760025490600182811c92168015620006b8575b60208310146200056d5781601f8493116200065a575b50602090601f8311600114620005df575f92620005d3575b50508160011b915f199060031b1c1916176002555b620001fd8162000a33565b610120526200020c8762000bd1565b6101405260208151910120958660e052602081519101209586610100524660a0526040519660208801917f8b73c3c69bb8fe3d512ecc4cf759cc79239f7b179b0ffacaa9a75d522b39400f8352604089015260608801524660808801523060a088015260a0875260c087019680881060018060401b038911176200058c5760408890525190206080523060c05260016014556001600160a01b03948516958615620005c45750848316948515620005b257821615620005b2576107d06001600160601b03851611620005a0576101609586528051906001600160401b0382116200058c57601754600181811c9116801562000581575b60208210146200056d57601f811162000517575b50602090601f8311600114620004955791806200036a95949262000363945f9262000489575b50508160011b915f199060031b1c1916176017555b6200035c816200088a565b50620008fa565b506200099a565b5060a01b6001600160a01b031916177fde1159fbbeca73b2aca5752c42b257ca18171ae3b3d3bbf22c7938e3a961a0cb557f1aa44fcb526383bd2f7c6231f8c09a41edc5b654966336907d6f785a5b3d288f80546001600160601b0319166103e8179055604051615a00918262000d2083396080518261546b015260a05182615526015260c05182615435015260e051826154ba015261010051826154e0015261012051826113020152610140518261132b01525181818161083301528181610b39015281816112bb0152818161153c0152818161171301528181611845015281816118e50152818161192a01528181611d9e0152818161258e015281816126c1015281816127820152818161288501528181612cbd01526136870152f35b015190505f806200033c565b60175f9081525f8051602062006780833981519152929190601f198516905b818110620004fe575092600192859262000363966200036a99989610620004e5575b505050811b0160175562000351565b01515f1960f88460031b161c191690555f8080620004d6565b92936020600181928786015181550195019301620004b4565b60175f525f8051602062006780833981519152601f840160051c8101916020851062000562575b601f0160051c01905b81811062000556575062000316565b5f815560010162000547565b90915081906200053e565b634e487b7160e01b5f52602260045260245ffd5b90607f169062000302565b634e487b7160e01b5f52604160045260245ffd5b604051630fdfac3160e31b8152600490fd5b60405163d92e233d60e01b8152600490fd5b63d92e233d60e01b8152600490fd5b015190505f80620001dd565b60025f90815293505f805160206200674083398151915291905b601f19841685106200063e576001945083601f1981161062000625575b505050811b01600255620001f2565b01515f1960f88460031b161c191690555f808062000616565b81810151835560209485019460019093019290910190620005f9565b60025f529091505f8051602062006740833981519152601f840160051c810160208510620006b0575b90849392915b601f830160051c82018110620006a1575050620001c5565b5f815585945060010162000689565b508062000683565b91607f1691620001af565b015190505f8062000175565b60015f90815293505f805160206200676083398151915291905b601f19841685106200072e576001945083601f1981161062000715575b505050811b016001556200018a565b01515f1960f88460031b161c191690555f808062000706565b81810151835560209485019460019093019290910190620006e9565b60015f529091505f8051602062006760833981519152601f840160051c810160208510620007a0575b90849392915b601f830160051c82018110620007915750506200015d565b5f815585945060010162000779565b508062000773565b91607f169162000147565b5f80fd5b604081019081106001600160401b038211176200058c57604052565b601f909101601f19168101906001600160401b038211908210176200058c57604052565b51906001600160a01b0382168203620007b357565b5f5b8381106200081e5750505f910152565b81810151838201526020016200080e565b81601f82011215620007b35780516001600160401b0381116200058c576040519262000866601f8301601f191660200185620007d3565b81845260208284010111620007b3576200088791602080850191016200080c565b90565b6001600160a01b03165f8181525f80516020620067a0833981519152602052604090205460ff16620008f5575f8181525f80516020620067a083398151915260205260408120805460ff191660011790553391905f80516020620067208339815191528180a4600190565b505f90565b6001600160a01b03165f8181527fd329ff8a035c3ce5df2b0dae604d660c0d8783bf7e64be00c1d10db96c0b87b460205260409020547fb19546dff01e856fb3f010c267a7b1c60363cf8a4664e21cc89c26224620214e919060ff166200099457815f525f60205260405f20815f5260205260405f20600160ff1982541617905533915f80516020620067208339815191525f80a4600190565b50505f90565b6001600160a01b03165f8181527e4137ac999875a62b0381e65f8832c0a903cf25418dd0c40107411aa55dc68760205260409020547f797343f8d6a29aafeb3aaf0910a8973e0081c60c2f6c1f775cd9f76ea348fc1e919060ff166200099457815f525f60205260405f20815f5260205260405f20600160ff1982541617905533915f80516020620067208339815191525f80a4600190565b80516020908181101562000ab05750601f82511162000a6e578082519201519080831062000a6057501790565b825f19910360031b1b161790565b60449062000aa29260405193849263305a27a960e01b8452806004850152825192839182602487015286860191016200080c565b601f01601f19168101030190fd5b906001600160401b0382116200058c57600e54926001938481811c9116801562000bc6575b838210146200056d57601f811162000b8f575b5081601f841160011462000b2757509282939183925f9462000b1b575b50501b915f199060031b1c191617600e5560ff90565b015192505f8062000b05565b919083601f198116600e5f52845f20945f905b8883831062000b74575050501062000b5b575b505050811b01600e5560ff90565b01515f1960f88460031b161c191690555f808062000b4d565b85870151885590960195948501948793509081019062000b3a565b600e5f5284601f845f20920160051c820191601f860160051c015b82811062000bba57505062000ae8565b5f815501859062000baa565b90607f169062000ad5565b80516020908181101562000bfe5750601f82511162000a6e578082519201519080831062000a6057501790565b906001600160401b0382116200058c57600f54926001938481811c9116801562000d14575b838210146200056d57601f811162000cdd575b5081601f841160011462000c7557509282939183925f9462000c69575b50501b915f199060031b1c191617600f5560ff90565b015192505f8062000c53565b919083601f198116600f5f52845f20945f905b8883831062000cc2575050501062000ca9575b505050811b01600f5560ff90565b01515f1960f88460031b161c191690555f808062000c9b565b85870151885590960195948501948793509081019062000c88565b600f5f5284601f845f20920160051c820191601f860160051c015b82811062000d0857505062000c36565b5f815501859062000cf8565b90607f169062000c2356fe6080806040526004361015610012575f80fd5b5f3560e01c90816301ffc9a714612ff05750806306fdde0314612f65578063081812fc14612f29578063095ea7b314612e485780630a0a351514612e2757806310c551c514612de55780631169051d14610ace578063162094c414612cfe57806318160ddd14612ce15780631eae6ed714612c8f5780631fc7f7e914612c4057806323b872dd14612c29578063248a9ca314612bfd57806327dc3fbd14612b9c5780632a55205a14612b755780632f2ff15d14612b395780632f745c5914612ac85780633013ce29146112a6578063314cfd33146127c557806334d6a91c1461247257806335e4d0a9146123a557806336568abe1461235e5780633f4ba83a146122f557806342842e0e146122c857806342966c68146120bd578063463dace01461209e578063492ae5a314611f755780634f558e7914611f445780634f6ccce714611eef5780634fbda6fc14611e1f57806355a9763214611d0457806355f804b314611bc65780635c975abb14611ba45780635e27a77514611b79578063602481b614611a185780636352211e146119e8578063694e91b8146119bc5780636c8b703f146119815780636eddaebf1461165257806370824c5c1461161857806370a08231146115ed5780637ad75d8d146114395780638456cb59146113e057806384b0196e146112ea578063877c86fb146112a65780638a71bb2d1461127257806391d148541461122a57806395d89b411461116a57806397491d6f146111365780639b1d4b1b146108595780639f6d68b0146110d0578063a217fddf146110b6578063a22cb46514611018578063a2c98a1914610e4a578063aa15d40f14610e22578063b88d4fde14610db6578063b97c9f7714610d8f578063c87b56dd14610d58578063c8a9aabc14610af3578063cf9122d414610ace578063d547741f14610a92578063dbe55e5614610a5e578063e58378bb14610a37578063e5afe3e614610a0d578063e5f2e0cc146108dd578063e985e9c51461088b578063f249fd1614610859578063f60e11f214610747578063f7d97577146106f75763fc68c6891461031e575f80fd5b346106f35760603660031901126106f3576001600160401b03602460043581356044358481116106f3576103569036906004016131be565b918042116106e157604051602096878201927f6c4abaed6d4290f5c9035e4720ceec9c1755d0a944dbb8f561d1928ae4e4599684528660408401526060830152606082526080820190828210908211176106ce57926103c66103dd95936103ce936103d496604052519020614b6f565b92369161341e565b9061554c565b90929192615586565b6103e682613e35565b6001600160a01b0391908282169083168190036106bc576104078285614ecf565b808361041286613e35565b16036106aa57835f52600386528260405f205416928115159182610605575b505050508015801590816105e5575b5f848152600387526040812080546001600160a01b03191690558490845f8051602061592b8339815191528280a41561056e575050600954815f52600a84528060405f2055600160401b81101561055b57816104a58260016104bd9401600955613a48565b90919082549060031b91821b915f19901b1916179055565b6009545f199384820191821161054857600a90835f528181526104e460405f205493613a48565b90549060031b1c6104f8816104a586613a48565b5f525260405f20555f525f604081205560095490811561053557500161053061052082613a48565b8154905f199060031b1b19169055565b600955005b634e487b7160e01b5f9081526031600452fd5b83634e487b7160e01b5f5260116004525ffd5b82634e487b7160e01b5f5260416004525ffd5b610579575b506104bd565b61058281613a60565b825f526008855260405f2054915f526007855260405f20918181036105c0575b50825f52600885525f60408120555f5283525f60408120555f610573565b815f5282865260405f2054815f528060405f20555f526008865260405f20555f6105a2565b6105ee8461533d565b825f526004865260405f205f198154019055610440565b82610655575b50501561061a57808080610431565b90610635575060405190637e27328960e01b82526004820152fd5b61065160405192839263177e802f60e01b845260048401613294565b0390fd5b848114925090821561068a575b8215610672575b50505f8061060b565b909150845f526005875260405f205416145f80610669565b9150835f526006875260405f20815f52875260ff60405f20541691610662565b6040516329572f6760e01b8152600490fd5b604051632057875960e21b8152600490fd5b86634e487b7160e01b5f5260416004525ffd5b604051630819bdcd60e01b8152600490fd5b5f80fd5b346106f3576107053661327e565b9061070e613e57565b6001600160a01b0361071f82613e35565b1615610735575f52601560205260405f20555f80f35b60405163677510db60e11b8152600490fd5b346106f35760c03660031901126106f3576107606130ef565b602435906044359061077061311b565b608435929060a4356001600160401b0381116106f3576107949036906004016131be565b94908142116106e157610816956103ce61080d926103c660405160208101907f5b5ee45476aec33538b5e06ea1921d91fd74e2c274d2c67f3660df1a76b5940782528c604082015289606082015260018060a01b038099169788608083015260a082015260a08152610805816133aa565b519020614b6f565b90969196615586565b818516036106bc5761082785613e35565b161561073557610857937f000000000000000000000000000000000000000000000000000000000000000061437e565b005b346106f35760403660031901126106f35761085761087561351d565b61087d613105565b90610886613e57565b613aad565b346106f35760403660031901126106f3576108a46130ef565b6108ac613105565b9060018060a01b038091165f52600660205260405f2091165f52602052602060ff60405f2054166040519015158152f35b346106f3576108eb36613161565b91906108f5613e57565b604051634f558e7960e01b815260048101839052602091908281602481305afa908115610a02575f916109d5575b5015610735575f805b8582106109a25761271091500361099057825f525f805160206158eb8339815191529182815261095e60405f20613f27565b5f5b85811061096957005b600190855f5284835261098a60405f20610984838a88613ef6565b90613f57565b01610960565b604051630569d67b60e21b8152600490fd5b6001906109cd906001600160601b036109c6876109c0878c8a613ef6565b01613f06565b1690613f1a565b91019061092c565b6109f59150833d85116109fb575b6109ed81836133e0565b810190613ede565b85610923565b503d6109e3565b6040513d5f823e3d90fd5b346106f35760203660031901126106f3576004355f526015602052602060405f2054604051908152f35b346106f3575f3660031901126106f35760206040515f8051602061586b8339815191528152f35b346106f3575f3660031901126106f3575f805160206158cb833981519152546040516001600160a01b039091168152602090f35b346106f35760403660031901126106f357610857600435610ab1613105565b90805f525f602052610ac9600160405f200154613ebd565b614e5d565b346106f357610857610adf366131eb565b94610aee94919493929361425d565b6135b4565b346106f35760603660031901126106f357604435602435600435610b1561425d565b6001600160a01b039182610b2883613e35565b161561073557610b3782613e35565b7f000000000000000000000000000000000000000000000000000000000000000090610b668582161515614b95565b610b71831515614bde565b610b7c861515614c3d565b835f525f8051602061584b83398151915294602086602052610ba760ff600460405f20015416614c9b565b855f5286602052610bbf338360405f20541614614cdd565b610bcb8830338761427b565b610bfc5f805160206158cb833981519152548060a01c905f9180610d40575b50818581610d2d575b505050896135a7565b906127109260018060601b039380610c24865f805160206158ab833981519152541686613594565b049485610c8b575b5050505090610c3a916135a7565b9081610c7a575b505050815f5282602052610c5d600260405f2001918254613f1a565b90555f52602052610c76600360405f2001918254613f1a565b9055005b610c83926142c2565b848080610c41565b610c948a614f59565b938451610ca2575b50610c2c565b949a92989095965f9c949c9a92989a5b8d51811015610d105780808f8e8e8e610cdd8f8f8f610cd360019b896139bd565b5101511690613594565b049283610cf0575b505050505001610cb2565b610d0694610cfd916139bd565b515116906142c2565b808f8e8e82610ce5565b50969450975097955097909850610c3a9250909189808080610c9c565b610d389216886142c2565b8a8185610bf3565b612710919250610d50908c613594565b04908b610bea565b346106f35760203660031901126106f357610d8b610d77600435613bd3565b6040519182916020835260208301906130ca565b0390f35b346106f3575f3660031901126106f35760206040515f8051602061594b8339815191528152f35b346106f35760803660031901126106f357610dcf6130ef565b610dd7613105565b6064359190604435906001600160401b0384116106f357366023850112156106f357610e1061085794369060248160040135910161341e565b92610e1c83838361394c565b3361520c565b346106f35760203660031901126106f3576020610e40600435615609565b6040519015158152f35b346106f35760803660031901126106f3576004356001600160401b036024358181116106f357610e7e9036906004016131be565b90604435936064358481116106f357610e9b9036906004016131be565b908642116106e157610f0e916103ce6103d4926103c6610ebc368a8a61341e565b9a8b516020809d012090604051908d8201927f9d80cfda7d3bef0d400175b9c54c79ff0f2018450a6987c3e6a106b910b83d5584528a6040840152606083015260808201526080815261080581613359565b610f1782613e35565b6001600160a01b03918216908216036106bc57610f3382613e35565b1615610735578215611006575f526016845260405f20928211610ff257610f6482610f5e8554613454565b85613533565b5f93601f8311600114610f925750610c76929382915f92610f87575b5050613582565b013590508480610f80565b90601f19831694845f52825f20925f905b878210610fda575050836001959610610fc1575b505050811b019055005b01355f19600384901b60f8161c19169055838080610fb7565b80600184968294958701358155019501920190610fa3565b634e487b7160e01b5f52604160045260245ffd5b6040516317314b6160e01b8152600490fd5b346106f35760403660031901126106f3576110316130ef565b60243590811515908183036106f3576001600160a01b031691821561109d5761106f90335f52600660205260405f20845f5260205260405f20614143565b6040519081527f17307eab39ab6107e8899845ad3d59bd9653f200f220920489ca2b5937696c3160203392a3005b604051630b61174360e31b815260048101849052602490fd5b346106f3575f3660031901126106f35760206040515f8152f35b346106f35760203660031901126106f3576110e961351d565b6110f1613e57565b6001600160601b03166127108111611124575f805160206158ab83398151915280546001600160601b0319169091179055005b60405163c2a2a95d60e01b8152600490fd5b346106f35760203660031901126106f3576004356001600160a01b0361115b82613e35565b16156107355761085790614e1e565b346106f3575f3660031901126106f3576040516002545f8261118b83613454565b91828252602093600190856001821691825f1461120a5750506001146111cd575b506111b9925003836133e0565b610d8b6040519282849384528301906130ca565b84915060025f52815f20905f915b8583106111f25750506111b99350820101856111ac565b805483890185015287945086939092019181016111db565b60ff1916858201526111b995151560051b85010192508791506111ac9050565b346106f35760403660031901126106f357611243613105565b6004355f525f60205260405f209060018060a01b03165f52602052602060ff60405f2054166040519015158152f35b346106f3575f3660031901126106f3575f805160206158ab833981519152546040516001600160601b039091168152602090f35b346106f3575f3660031901126106f3576040517f00000000000000000000000000000000000000000000000000000000000000006001600160a01b03168152602090f35b346106f3575f3660031901126106f3576113836113267f000000000000000000000000000000000000000000000000000000000000000061563d565b61134f7f0000000000000000000000000000000000000000000000000000000000000000615716565b6040519061135c8261338f565b5f8252611391602091604051958695600f60f81b875260e0602088015260e08701906130ca565b9085820360408701526130ca565b4660608501523060808501525f60a085015283810360c0850152602080845192838152019301915f5b8281106113c957505050500390f35b8351855286955093810193928101926001016113ba565b346106f3575f3660031901126106f3576113f8613e57565b61140061425d565b600160ff19600d541617600d557f62e78cea01bee320cd4e420270b5ea74000d11b0c9f74754ebdbfc544b05a2586020604051338152a1005b346106f35760803660031901126106f3576114526130ef565b6044356024356064356001600160401b0381116106f3576114779036906004016131be565b929061148161425d565b8142116106e1576114ea6114f3946103ce604051936103c6602086017f59bcf4730f527f68ed2585db45891e607e17e0a1fe74ec1a4c6c9e283e5c2855815260018060a01b0396878c16988960408301528a606083015260808201526080815261080581613359565b90959195615586565b8084169182156115db57828261150886613e35565b160361157857156115db5761151c83615609565b61159c57825f52601560205260405f2054801561158a57846115609187867f0000000000000000000000000000000000000000000000000000000000000000614ff7565b61156983613e35565b1603611578576108579261472a565b6040516328cdac3360e01b8152600490fd5b60405163778580cf60e11b8152600490fd5b60405162461bcd60e51b8152602060048201526017602482015276115490cdcc8c4e881d1bdad95b881a5cc81c995b9d1959604a1b6044820152606490fd5b60405163d92e233d60e01b8152600490fd5b346106f35760203660031901126106f357602061161061160b6130ef565b613a60565b604051908152f35b346106f3575f3660031901126106f35760206040517f797343f8d6a29aafeb3aaf0910a8973e0081c60c2f6c1f775cd9f76ea348fc1e8152f35b346106f35760803660031901126106f35761166b61311b565b61167361425d565b6001600160a01b03611686600435613e35565b1615610735576001600160a01b0381169081156115db576116a8600435613e35565b916001600160a01b03831690811461196f576116c5901515614b95565b6116d26024351515614d25565b6116df6044351515614d80565b6004355f525f8051602061584b83398151915260205261170960ff600460405f2001541615614dd8565b61173760443530337f000000000000000000000000000000000000000000000000000000000000000061427b565b6117685f805160206158cb833981519152548060a01c905f9180611955575b50818061191b575b50506044356135a7565b9161271061178c60018060601b035f805160206158ab833981519152541685613594565b049283611870575b610857936117a1916135a7565b8061183f575b505061183a6117b860243542613f1a565b6004604051916117c783613359565b3383526020830190428252604084019081526060840190604435825260808501926001845284355f525f8051602061584b83398151915260205260405f209560018060a01b0390511660018060a01b03198754161786555160018601555160028501555160038401555115159101614143565b614a81565b611869917f00000000000000000000000000000000000000000000000000000000000000006142c2565b82806117a7565b61187b600435614f59565b8051611888575b50611794565b915f9391935b835181101561190f576001906127106118be6001600160601b0360206118b4858a6139bd565b5101511689613594565b04806118cc575b500161188e565b61190990838060a01b036118e084896139bd565b5151167f00000000000000000000000000000000000000000000000000000000000000006142c2565b876118c5565b50915091610857611882565b61194e916001600160a01b03167f00000000000000000000000000000000000000000000000000000000000000006142c2565b848161175e565b61271091925061196790604435613594565b049085611756565b604051631f01c24760e31b8152600490fd5b346106f35760203660031901126106f3576004355f526016602052610d8b6119b5610d7760405f206040519283809261348c565b03826133e0565b346106f3575f3660031901126106f35760205f805160206158cb8339815191525460a01c604051908152f35b346106f35760203660031901126106f3576020611a06600435613e35565b6040516001600160a01b039091168152f35b346106f3576020806003193601126106f3576004356001600160401b0381116106f357611a49903690600401613131565b611a51613e57565b5f805b828210611b5357612710915003610990575f8051602061590b8339815191529081545f835580611b2f575b505f5b818110611a8b57005b611a96818386613ef6565b908354600160401b811015610ff25760018101808655811015611b1b57845f52865f200182359060018060a01b0382168092036106f35780546001600160a01b0319169091178155600192611b159190611af1908901613f06565b9080546001600160a01b031660a09290921b6001600160a01b031916919091179055565b01611a82565b634e487b7160e01b5f52603260045260245ffd5b825f5260205f20908101905b818110611b485750611a7f565b5f8155600101611b3b565b600190611b71906001600160601b036109c6886109c087898b613ef6565b910190611a54565b346106f35760203660031901126106f357610d8b611b986004356149d7565b604051918291826132fe565b346106f3575f3660031901126106f357602060ff600d54166040519015158152f35b346106f3576020806003193601126106f3576001600160401b036004358181116106f357366023820112156106f357611c0990369060248160040135910161341e565b91611c12613e57565b8251918211610ff257611c26601754613454565b601f8111611cc0575b5080601f8311600114611c6057508190611c50935f92611c55575050613582565b601755005b015190508380610f80565b90601f1983169360175f52825f20925f905b868210611ca85750508360019510611c90575b505050811b01601755005b01515f1960f88460031b161c19169055828080611c85565b80600185968294968601518155019501930190611c72565b60175f52815f20601f840160051c810191838510611cfa575b601f0160051c01905b818110611cef5750611c2f565b5f8155600101611ce2565b9091508190611cd9565b346106f35760603660031901126106f357611d1d6130ef565b60243590604435906001600160a01b0390818316908184036106f357611d4161425d565b82611d4b86613e35565b1615610735578183611d5c87613e35565b160361157857828116156115db5781156115db57611d7985615609565b61159c57845f52601560205260405f2054801561158a5781611dc2868893611dc795857f0000000000000000000000000000000000000000000000000000000000000000614ff7565b614537565b91821680611de857604051637e27328960e01b815260048101869052602490fd5b03611def57005b6040516364283d7b60e01b81526001600160a01b0392831660048201526024810193909352166044820152606490fd5b346106f35760a03660031901126106f357611e386130ef565b6024359060643590604435906084356001600160401b0381116106f357611e639036906004016131be565b93908142116106e157611ed3946103ce6114ea926103c660405160208101907faf45a5cd01ba55d05f1c402dedc42c73de3a407fb16434508366572ccab27671825260018060a01b0397888a1660408301528c60608301528a608083015260a082015260a08152610805816133aa565b611edc85613e35565b8482169116036106bc5761085793614154565b346106f35760203660031901126106f357600435600954811015611f2657611f18602091613a48565b90546040519160031b1c8152f35b6044906040519063295f44f760e21b82525f60048301526024820152fd5b346106f35760203660031901126106f35760206001600160a01b03611f6a600435613e35565b161515604051908152f35b346106f3576020806003193601126106f3576004356001600160401b0381116106f357611fa6903690600401613131565b611fae613e57565b5f805b82821061207857612710915003610990575f8051602061598b8339815191529081545f835580612054575b505f5b818110611fe857005b611ff3818386613ef6565b908354600160401b811015610ff25760018101808655811015611b1b57845f52865f200182359060018060a01b0382168092036106f35780546001600160a01b031916909117815560019261204e9190611af1908901613f06565b01611fdf565b825f5260205f20908101905b81811061206d5750611fdc565b5f8155600101612060565b600190612096906001600160601b036109c6886109c087898b613ef6565b910190611fb1565b346106f35760203660031901126106f357610d8b611b98600435614f59565b346106f3576020806003193601126106f357600435906001600160a01b03806120e584613e35565b1615610735576120f483613e35565b81339116036106aa576121073384614ecf565b825f526003825260405f205416908115918215806122a8575b5f858152600384526040812080546001600160a01b03191690558590835f8051602061592b8339815191528280a48315612231575050600954835f52600a82528060405f2055600160401b811015610ff257836104a58260016121869401600955613a48565b6009545f199182820191821161221d57600a90855f528181526121ad60405f205493613a48565b90549060031b1c6121c1816104a586613a48565b5f525260405f2055825f525f6040812055600954801561220957016121e861052082613a48565b6009556121f157005b60249060405190637e27328960e01b82526004820152fd5b634e487b7160e01b5f52603160045260245ffd5b634e487b7160e01b5f52601160045260245ffd5b61223c575b50612186565b61224581613a60565b845f526008835260405f2054915f526007835260405f2091818103612283575b50845f52600883525f60408120555f5281525f604081205583612236565b815f5282845260405f2054815f528060405f20555f526008845260405f205585612265565b6122b18561533d565b815f526004835260405f205f198154019055612120565b346106f3576108576122d936613249565b90604051926122e78461338f565b5f8452610e1c83838361394c565b346106f3575f3660031901126106f35761230d613e57565b600d5460ff81161561234c5760ff1916600d557f5db9ee0a495bf2e6ff9c91a7834c1ba4fdd244a5e8aa4e537bd38aeae4b073aa6020604051338152a1005b604051638dfc202b60e01b8152600490fd5b346106f35760403660031901126106f357612377613105565b336001600160a01b038216036123935761085790600435614e5d565b60405163334bd91960e11b8152600490fd5b346106f35760803660031901126106f3576004356123c1613105565b6044356064356001600160401b0381116106f3576123e39036906004016131be565b9190928142116106e1576124526103d4604051946103ce60208701977f4c2e6b550c80c2b2d5bdaf810190bbb58f3e053a2b43e38a663c5b5197fe74ca89528960408901526103c660018060a01b03998a809816998a998a606083015260808201526080815261080581613359565b16036106bc578161246284614871565b5116036106bc5761115b82613e35565b346106f357612480366132af565b61248c9693959661425d565b8242116106e1576103ce6103d4926103c66124fe9560405160208101917f04c9429b7be476f4cd813816f812c191113fa4f00477094b2c62df30b9783ea383528960408301528c60608301528a608083015260018060a01b038c1660a083015260c082015260c08152610805816133c5565b6001600160a01b038481169116036106bc576001600160a01b038316156115db5761252881613e35565b936001600160a01b03808616908516811461196f57612548901515614b95565b612553811515614d25565b61255e831515614d80565b815f525f8051602061584b83398151915260205261258660ff600460405f2001541615614dd8565b6125b28330867f000000000000000000000000000000000000000000000000000000000000000061427b565b6125e15f805160206158cb833981519152548060a01c905f91806127ad575b508180612773575b5050846135a7565b9461271061260560018060601b035f805160206158ab833981519152541688613594565b0495866126ec575b60049261183a95949261262661085799612634946135a7565b806126bb575b505042613f1a565b926040519361264285613359565b6001600160a01b038781168652426020808801918252604080890194855260608901958652600160808a018181525f9889525f8051602061584b8339815191529093529620975188546001600160a01b031916931692909217875551938601939093555160028501555160038401555115159101614143565b6126e5917f00000000000000000000000000000000000000000000000000000000000000006142c2565b888061262c565b6126f584614f59565b8051612702575b5061260d565b9492909593915f5b86518110156127625760019061271061273a6001600160601b036020612730858d6139bd565b510151168c613594565b0480612748575b500161270a565b61275c90838060a01b036118e0848c6139bd565b8a612741565b5093959294509092909160046126fc565b6127a6916001600160a01b03167f00000000000000000000000000000000000000000000000000000000000000006142c2565b87816125d9565b6127109192506127bd9087613594565b0490886125d1565b346106f3576127d3366132af565b6127e3969391949695929561425d565b8542116106e1576103d4956103c6916128616040519889926103ce60209a8d60808d8801977feb1b9beb142887d8e9f09de0dad5352b7830094b3d8730f2bc71fcf59534defd89528d60408201528c6060820152015260018060a01b03978896878b169e8f998a60a083015260c082015260c08152610805816133c5565b16036106bc57858161287286614871565b5116036106bc5761288284613e35565b907f0000000000000000000000000000000000000000000000000000000000000000926128b28284161515614b95565b8715612a8c5788612919916128c8871515614bde565b6128d3821515614c3d565b875f526129115f8051602061584b8339815191529a8b8b526128fe60ff600460405f20015416614c9b565b895f528b8b528560405f20541614614cdd565b30908661427b565b6129495f805160206158cb833981519152548060a01c905f9180612a74575b50818481612a6157505050896135a7565b5f805160206158ab83398151915254612710926001600160601b0391849061297390841685613594565b0493846129d2575b50505090612988916135a7565b90816129c1575b505050815f528383526129aa600260405f2001918254613f1a565b90555f5252610c76600360405f2001918254613f1a565b6129ca926142c2565b85808061298f565b6129db89614f59565b9283516129e9575b5061297b565b955f9c949b939c9a95979a9992999891985b8d51811015612a465780808f8e8e8e612a1c8f8f8f610cd360019b896139bd565b049283612a2f575b5050505050016129fb565b612a3c94610cfd916139bd565b808f8e8e82612a24565b509550965096509761298892979491995090918a80806129e3565b612a6c9216876142c2565b8a8184610bf3565b612710919250612a84908c613594565b04908b612938565b60405162461bcd60e51b815260048101889052601460248201527350617965722063616e6e6f74206265207a65726f60601b6044820152606490fd5b346106f35760403660031901126106f357612ae16130ef565b60243590612aee81613a60565b821015612b1d5760018060a01b03165f52600760205260405f20905f52602052602060405f2054604051908152f35b61065160405192839263295f44f760e21b845260048401613294565b346106f35760403660031901126106f357610857600435612b58613105565b90805f525f602052612b70600160405f200154613ebd565b614b0c565b346106f357612b8c612b863661327e565b906139d1565b90610d8b60405192839283613294565b346106f35760203660031901126106f357612bb5613993565b5060a0612bc3600435614871565b608060405191600180851b038151168352602081015160208401526040810151604084015260608101516060840152015115156080820152f35b346106f35760203660031901126106f3576004355f525f6020526020600160405f200154604051908152f35b346106f357610857612c3a36613249565b9161394c565b346106f35760803660031901126106f357612c596130ef565b50612c62613105565b50612c6e6044356149d7565b51151580612c84575b6020906040519015158152f35b506064351515612c77565b346106f357612c9d36613194565b916001600160a01b03612caf83613e35565b1615610735576108579233927f000000000000000000000000000000000000000000000000000000000000000061437e565b346106f3575f3660031901126106f3576020600954604051908152f35b346106f35760403660031901126106f3576004356001600160401b036024358181116106f357612d329036906004016131be565b9092612d3c613e57565b6001600160a01b03612d4d82613e35565b1615610735578115611006575f52602092601660205260405f20928211610ff257612d7c82610f5e8554613454565b5f93601f8311600114612d9e5750610c76929382915f92610f87575050613582565b90601f19831694845f5260205f20925f905b878210612dcd575050836001959610610fc157505050811b019055005b80600184968294958701358155019501920190612db0565b346106f357612df336613194565b6001600160a01b0380612e0584613e35565b161561073557612e1483613e35565b339116036106aa57610857923392614154565b346106f357610857612e3836613161565b90612e41613e57565b3092613fb1565b346106f35760403660031901126106f357612e616130ef565b602435612e6d81613e35565b33151580612f16575b80612eed575b612ed5576001600160a01b039283169282918491167f8c5be1e5ebec7d5bd14f71427d1e84f3dd0314c0f7b2291e5b200ac8c7c3b9255f80a45f90815260056020526040902080546001600160a01b0319169091179055005b60405163a9fbf51f60e01b8152336004820152602490fd5b5060018060a01b0381165f52600660205260405f20335f5260205260ff60405f20541615612e7c565b506001600160a01b038116331415612e76565b346106f35760203660031901126106f357600435612f4681613e35565b505f526005602052602060018060a01b0360405f205416604051908152f35b346106f3575f3660031901126106f3576040515f60018260015492612f8984613454565b92838352602094856001821691825f1461120a575050600114612fb357506111b9925003836133e0565b84915060015f52815f20905f915b858310612fd85750506111b99350820101856111ac565b80548389018501528794508693909201918101612fc1565b346106f35760203660031901126106f3576004359063ffffffff60e01b82168092036106f35760209163152a902d60e11b8114908115613032575b5015158152f35b63780e9d6360e01b81149150811561304c575b508361302b565b6380ac58cd60e01b811491508115613098575b811561306d575b5083613045565b637965db0b60e01b811491508115613087575b5083613066565b6301ffc9a760e01b14905083613080565b635b5e139f60e01b8114915061305f565b5f5b8381106130ba5750505f910152565b81810151838201526020016130ab565b906020916130e3815180928185528580860191016130a9565b601f01601f1916010190565b600435906001600160a01b03821682036106f357565b602435906001600160a01b03821682036106f357565b606435906001600160a01b03821682036106f357565b9181601f840112156106f3578235916001600160401b0383116106f3576020808501948460061b0101116106f357565b9060406003198301126106f35760043591602435906001600160401b0382116106f35761319091600401613131565b9091565b60609060031901126106f3576004356001600160a01b03811681036106f357906024359060443590565b9181601f840112156106f3578235916001600160401b0383116106f357602083818601950101116106f357565b60806003198201126106f3576004356001600160a01b03811681036106f35791602435916001600160401b03916044358381116106f3578261322f916004016131be565b939093926064359182116106f35761319091600401613131565b60609060031901126106f3576001600160a01b039060043582811681036106f3579160243590811681036106f3579060443590565b60409060031901126106f3576004359060243590565b6001600160a01b039091168152602081019190915260400190565b9060c06003198301126106f3576004359160243591604435916064356001600160a01b03811681036106f357916084359160a435906001600160401b0382116106f357613190916004016131be565b60208082019080835283518092528060408094019401925f905b83821061332757505050505090565b845180516001600160a01b031687528301516001600160601b0316868401529485019493820193600190910190613318565b60a081019081106001600160401b03821117610ff257604052565b604081019081106001600160401b03821117610ff257604052565b602081019081106001600160401b03821117610ff257604052565b60c081019081106001600160401b03821117610ff257604052565b60e081019081106001600160401b03821117610ff257604052565b601f909101601f19168101906001600160401b03821190821017610ff257604052565b6001600160401b038111610ff257601f01601f191660200190565b92919261342a82613403565b9161343860405193846133e0565b8294818452818301116106f3578281602093845f960137010152565b90600182811c92168015613482575b602083101461346e57565b634e487b7160e01b5f52602260045260245ffd5b91607f1691613463565b80545f939261349a82613454565b918282526020936001916001811690815f146134fe57506001146134c0575b5050505050565b90939495505f92919252835f2092845f945b8386106134ea57505050500101905f808080806134b9565b8054858701830152940193859082016134d2565b60ff19168685015250505090151560051b010191505f808080806134b9565b600435906001600160601b03821682036106f357565b601f821161354057505050565b5f5260205f20906020601f840160051c83019310613578575b601f0160051c01905b81811061356d575050565b5f8155600101613562565b9091508190613559565b8160011b915f199060031b1c19161790565b8181029291811591840414171561221d57565b9190820391821161221d57565b6001600160a01b0380821697949694959294909388156115db57871561100657601454925f19841461221d5760018401601455604051906135f48261338f565b5f8252866136028683614537565b16613934573b613809575b50909180939495969798505f52602097601589528660405f20556016895260405f209160018060401b038211610ff25761364b82610f5e8554613454565b5f90601f83116001146137a65761366b92915f918361379b575050613582565b90555b8461367d575b50505050509050565b906136e5916136d77f0000000000000000000000000000000000000000000000000000000000000000966136b38130338b61427b565b5f805160206158cb83398151915254908160a01c915f9280613768575b50506135a7565b9381613755575b5050614f59565b945f5b8651811015613743576001906127106137176001600160601b038561370d858d6139bd565b5101511686613594565b0480613725575b50016136e8565b61373d9086613734848c6139bd565b515116886142c2565b5f61371e565b50505050509050805f80808080613674565b61376191309184613fb1565b5f806136de565b6127109193506137789083613594565b0491828981613788575b506136d0565b61379392168b6142c2565b5f8289613782565b013590505f80610f80565b601f19831691845f528b5f20925f5b8d8282106137f35750509084600195949392106137da575b505050811b01905561366e565b01355f19600384901b60f8161c191690555f80806137cd565b60018496829395870135815501950192016137b5565b6040516020818c815f81613845630a85bd0160e11b988983523360048401528360248401528c60448401526080606484015260848301906130ca565b03925af15f91816138ef575b506138b0578a3d156138a8573d9061386882613403565b9161387660405193846133e0565b82523d5f602084013e5b815191826138a157604051633250574960e11b815260048101839052602490fd5b6020915001fd5b606090613880565b63ffffffff60e09b939495969798999a9b1b16036138d7575090879695949392915f61360d565b60249060405190633250574960e11b82526004820152fd5b9091506020813d60201161392c575b8161390b602093836133e0565b810103126106f357516001600160e01b0319811681036106f357905f613851565b3d91506138fe565b6040516339e3563760e11b81525f6004820152602490fd5b906001600160a01b03908181161561397b5761396a9084339161472a565b9080831690821603611def57505050565b604051633250574960e11b81525f6004820152602490fd5b604051906139a082613359565b5f6080838281528260208201528260408201528260608201520152565b8051821015611b1b5760209160051b010190565b5f805160206158ab833981519152546001600160601b0393926127109291613a09918491613a029190881690613594565b04916149d7565b908151158015613a1f575050505090505f905f90565b611b1b576020613a389201519460208601511690613594565b92516001600160a01b0316920490565b600954811015611b1b5760095f5260205f2001905f90565b6001600160a01b03168015613a7e575f52600460205260405f205490565b6040516322718ad960e21b81525f6004820152602490fd5b6001600160401b038111610ff25760051b60200190565b6001600160a01b03909116908115613b8e576107d06001600160601b03821611613b3b573015613af65760a01b6001600160a01b031916175f805160206158cb83398151915255565b60405162461bcd60e51b815260206004820152601d60248201527f41636365737320636f6e74726f6c2063616e6e6f74206265207a65726f0000006044820152606490fd5b60405162461bcd60e51b815260206004820152602560248201527f506c6174666f726d20636f6d6d697373696f6e2063616e6e6f74206578636565604482015264642032302560d81b6064820152608490fd5b60405162461bcd60e51b815260206004820152601f60248201527f506c6174666f726d20616464726573732063616e6e6f74206265207a65726f006044820152606490fd5b6001600160a01b03613be482613e35565b1615613e2357805f526020601681526119b5613c0960405f206040519283809261348c565b8051613e1d57505f9190819072184f03e93ff9f4daa797ed6e38ed64bf6a1f0160401b8281811015613e0f575b506904ee2d6d415b85acef8160201b905080841015613e02575b50662386f26fc1000080841015613df3575b506305f5e10080841015613de4575b5061271080841015613dd5575b506064831015613dc5575b600a80931015613dbb575b600180850193613cbc613ca686613403565b95613cb460405197886133e0565b808752613403565b9382602185880198601f19809801368b37880101905b613d8d575b5050506040519485925f9260175490613cef82613454565b9160018116908115613d6e5750600114613d29575b505050613d198291613d2696519384916130a9565b01039081018352826133e0565b90565b90919692935060175f52865f20905f915b838310613d5857505050613d2695613d19918501019291955f613d04565b80548a84018a0152899650918801918101613d3a565b60ff1916878501525050801515028401019150613d19613d265f613d04565b5f19019082906f181899199a1a9b1b9c1cb0b131b232b360811b8282061a835304908382613cd25750613cd7565b9260010192613c94565b9291606460029104920192613c89565b6004919493049201925f613c7e565b6008919493049201925f613c71565b6010919493049201925f613c62565b819493049201925f613c50565b604095500492505f80613c36565b91505090565b604051636c01c8cf60e11b8152600490fd5b5f818152600360205260409020546001600160a01b03169081156121f1575090565b335f9081527fd329ff8a035c3ce5df2b0dae604d660c0d8783bf7e64be00c1d10db96c0b87b460205260409020545f8051602061586b8339815191529060ff1615613e9f5750565b6044906040519063e2517d3f60e01b82523360048301526024820152fd5b805f525f60205260405f20335f5260205260ff60405f20541615613e9f5750565b908160209103126106f3575180151581036106f35790565b9190811015611b1b5760061b0190565b356001600160601b03811681036106f35790565b9190820180921161221d57565b8054905f815581613f36575050565b5f5260205f20908101905b818110613f4c575050565b5f8155600101613f41565b805490600160401b821015610ff25760018201808255821015611b1b575f5260205f200181359160018060a01b0383168093036106f35781546001600160a01b0319169092178155613faf91611af190602001613f06565b565b9291909160409081518091634f558e7960e01b825286600483015281602460209485935afa9081156140b5575f91614098575b5015614087575f805b8482106140615761271091500361405057845f525f8051602061588b8339815191529081815261401e835f20613f27565b5f5b8481106140305750505050505050565b600190875f5283835261404a855f2061098483898b613ef6565b01614020565b8151630569d67b60e21b8152600490fd5b60019061407f906001600160601b036109c6866109c0878b8d613ef6565b910190613fed565b815163677510db60e11b8152600490fd5b6140af9150823d84116109fb576109ed81836133e0565b5f613fe4565b83513d5f823e3d90fd5b156140c657565b60405162461bcd60e51b815260206004820152602160248201527f53616c65207072696365206d7573742062652067726561746572207468616e206044820152600360fc1b6064820152608490fd5b90815260609190911b6001600160601b03191660208201526034810191909152605481019190915260740190565b9060ff801983541691151516179055565b91929091906001600160a01b0390811615614221578216156141e1576141a4614196916141828515156140bf565b604051928391866020840196429288614115565b03601f1981018352826133e0565b5190205f525f805160206159ab83398151915260205260405f20600160ff198254161790555f8051602061596b83398151915260205260405f2055565b60405162461bcd60e51b8152602060048201526018602482015277526563697069656e742063616e6e6f74206265207a65726f60401b6044820152606490fd5b60405162461bcd60e51b81526020600482015260146024820152734f776e65722063616e6e6f74206265207a65726f60601b6044820152606490fd5b60ff600d541661426957565b60405163d93c066560e01b8152600490fd5b6040516323b872dd60e01b60208201526001600160a01b039283166024820152929091166044830152606480830193909352918152613faf916142bd82613359565b61535a565b6142bd613faf93926142e960405194859263a9059cbb60e01b602085015260248401613294565b03601f1981018452836133e0565b156142fe57565b60405162461bcd60e51b815260206004820152601560248201527453656c6c65722063616e6e6f74206265207a65726f60581b6044820152606490fd5b1561434257565b60405162461bcd60e51b815260206004820152601460248201527342757965722063616e6e6f74206265207a65726f60601b6044820152606490fd5b9392916001600160a01b03919061439883851615156142f7565b6143a5838616151561433b565b6143b08115156140bf565b5f805b6103e881106144d4575b50156144785761442d926143f8915f805160206158cb833981519152548060a01c925f9380614460575b5083908161444c575b5050506135a7565b614428858761271061442060018060601b035f805160206158ab833981519152541686613594565b0480956153b4565b6135a7565b918261443a575b50505050565b6144439361427b565b5f808080614434565b6144589216898b61427b565b5f82816143f0565b6127109194506144709084613594565b04925f6143e7565b60405162461bcd60e51b815260206004820152602e60248201527f5472616e73666572206e6f7420696e69746961746564206f7220726f79616c7460448201526d1e48185b1c9958591e481c185a5960921b6064820152608490fd5b6144de81426135a7565b5f805160206159ab833981519152888661419661450a60409586519283918b6020978885019788614115565b5190205f52525f20805460ff81166145265750506001016143b3565b60ff1916905550600190505f6143bd565b90805f5260206003815260018060a01b0360409080825f20541694851591821561470b575b81169182159081156146f5575b5f8781526003875285812080546001600160a01b03191686179055879085908a905f8051602061592b8339815191529080a41561468957600954865f52600a865280855f2055600160401b811015610ff257866104a58260016145cf9401600955613a48565b1561463a5750506009545f19939084810190811161221d57600a5f948386528181526145fe8587205493613a48565b90549060031b1c614612816104a586613a48565b8652528284205582528120556009548015612209570161463461052082613a48565b60095590565b8186949293940361464e575b505050505090565b61465790613a60565b5f1981019490851161221d576008925f5260078252835f20855f52825280845f20555f52525f20555f80808080614646565b8683146145cf5761469987613a60565b865f5260088652845f205490885f5260078752855f20918181036146d3575b50875f52600887525f868120555f5285525f848120556145cf565b815f52828852865f2054815f5280885f20555f5260088852865f20555f6146b8565b835f5260048652845f2060018154019055614569565b6147148661533d565b865f5260048552835f205f19815401905561455c565b815f526020906003825260018060a01b0360409181835f2054169582811680151590816147d0575b505050851591821561470b5781169182159081156146f5575f8781526003875285812080546001600160a01b03191686179055879085908a905f8051602061592b8339815191529080a41561468957600954865f52600a865280855f2055600160401b811015610ff257866104a58260016145cf9401600955613a48565b81614823575b50156147e3578080614752565b83869188155f14614806578151637e27328960e01b815260048101849052602490fd5b905163177e802f60e01b8152918291610651919060048401613294565b88811491508115614853575b811561483d575b505f6147d6565b9050865f526005865283855f205416145f614836565b9050875f5260068652845f20815f52865260ff855f2054169061482f565b614879613993565b5060408051634f558e7960e01b815260048101839052602092908381602481305afa9081156140b5575f91614948575b501561490d5760ff916004915f525f8051602061584b8339815191528452805f20908051946148d786613359565b82546001600160a01b03168652600183015490860152600282015490850152600381015460608501520154161515608082015290565b815162461bcd60e51b8152600481018490526014602482015273151bdad95b88191bd95cc81b9bdd08195e1a5cdd60621b6044820152606490fd5b61495f9150843d86116109fb576109ed81836133e0565b5f6148a9565b90815461497181613a96565b9260409361498260405191826133e0565b82815280946020809201925f5260205f20905f935b8585106149a657505050505050565b600184819284516149b681613374565b8654848060a01b038116825260a01c83820152815201930194019391614997565b5f5260205f805160206158eb83398151915260205260409060405f208054614a7557505f8051602061590b833981519152805491614a1483613a96565b93614a2260405195866133e0565b83855260208501925f5260205f20905f935b858510614a445750505050505090565b60018481928451614a5481613374565b8654848060a01b038116825260a01c83820152815201930194019391614a34565b9050613d269150614965565b6001600160a01b03165f8181527f64d20ad6c082d9621149fdda479032d4fb46f976cd92c72281623a586193c3b860205260409020545f8051602061594b833981519152919060ff16614b0657815f525f60205260405f20815f5260205260405f20600160ff1982541617905533915f8051602061582b8339815191525f80a4600190565b50505f90565b90815f525f60205260405f209060018060a01b031690815f5260205260ff60405f205416155f14614b0657815f525f60205260405f20815f5260205260405f20600160ff1982541617905533915f8051602061582b8339815191525f80a4600190565b604290614b7a615432565b906040519161190160f01b8352600283015260228201522090565b15614b9c57565b60405162461bcd60e51b815260206004820152601a602482015279546f6b656e206f776e65722063616e6e6f74206265207a65726f60301b6044820152606490fd5b15614be557565b60405162461bcd60e51b815260206004820152602a60248201527f4164646974696f6e616c206475726174696f6e206d75737420626520677265616044820152690746572207468616e20360b41b6064820152608490fd5b15614c4457565b60405162461bcd60e51b815260206004820152602960248201527f4164646974696f6e616c207061796d656e74206d75737420626520677265617460448201526806572207468616e20360bc1b6064820152608490fd5b15614ca257565b60405162461bcd60e51b8152602060048201526013602482015272151bdad95b881a5cc81b9bdd081c995b9d1959606a1b6044820152606490fd5b15614ce457565b60405162461bcd60e51b815260206004820152601960248201527821b0b63632b91036bab9ba103132903a3432903932b73a32b960391b6044820152606490fd5b15614d2c57565b60405162461bcd60e51b815260206004820152602660248201527f52656e74616c206475726174696f6e206d75737420626520677265617465722060448201526507468616e20360d41b6064820152608490fd5b15614d8757565b60405162461bcd60e51b815260206004820152602360248201527f52656e74616c207072696365206d75737420626520677265617465722074686160448201526206e20360ec1b6064820152608490fd5b15614ddf57565b60405162461bcd60e51b8152602060048201526017602482015276151bdad95b881a5cc8185b1c9958591e481c995b9d1959604a1b6044820152606490fd5b805f525f8051602061584b8339815191529081602052614e4760ff600460405f20015416614c9b565b5f52602052600460405f200160ff198154169055565b90815f525f60205260405f209060018060a01b031690815f5260205260ff60405f2054165f14614b0657815f525f60205260405f20815f5260205260405f2060ff19815416905533917ff6391f5c32d9c69d2a47ea670b442974b53935d1edc7fd64eb21e047a839171b5f80a4600190565b6001600160a01b039182169190614ee7831515614b95565b614ef081615609565b614ef957505050565b5f525f8051602061584b83398151915260205260405f20541603614f1957565b60405162461bcd60e51b815260206004820152601860248201527721b0b73737ba10313ab937103932b73a32b2103a37b5b2b760411b6044820152606490fd5b5f5260205f8051602061588b83398151915260205260409060405f208054614a7557505f8051602061598b833981519152805491614f9683613a96565b93614fa460405195866133e0565b83855260208501925f5260205f20905f935b858510614fc65750505050505090565b60018481928451614fd681613374565b8654848060a01b038116825260a01c83820152815201930194019391614fb6565b929390926001600160a01b03615010848216151561433b565b61501d81841615156142f7565b6150288615156140bf565b5f805160206158cb833981519152805460a01c905f91806151f4575b506150518830888761427b565b61505b82896135a7565b9183816151e0575b50505f805160206158ab83398151915254612710936001600160601b03925090849061509190841685613594565b049384615154575b505050906150a6916135a7565b8281615143575b505050604051916020830193845260018060601b0319809260601b16604084015260601b166054820152604881526080810181811060018060401b03821117610ff2576040525190205f527f6b770677edae0e90cca492948fa872f24dbe9c82ebeb8d39118b033a5e1bd3e160205260405f20600160ff198254161790555f8051602061596b83398151915260205260405f2055565b61514c926142c2565b5f80826150ad565b61515d896149d7565b92835161516b575b50615099565b949598919790965f9b949a939b5b8c518110156151c65780808e8d8d8d61519b8e8e6020610cd360019b896139bd565b0492836151ae575b505050505001615179565b6151bb94610cfd916139bd565b805f8f8d8f916151a3565b50965096509693919850966150a6925090915f8080615165565b6151ec925416856142c2565b5f8083615063565b6127109192506152049089613594565b04905f615044565b9293909193843b61521e575050505050565b604051630a85bd0160e11b8082526001600160a01b0395861660048301529385166024820152604481019190915260806064820152602095949093169392908590829081906152719060848301906130ca565b03815f885af15f91816152fd575b506152de575050503d5f146152d6573d9161529983613403565b926152a760405194856133e0565b83523d5f8285013e5b825192836152d157604051633250574960e11b815260048101849052602490fd5b019050fd5b6060916152b0565b9193506001600160e01b0319909116036138d757505f808080806134b9565b9091508581813d8311615336575b61531581836133e0565b810103126106f357516001600160e01b0319811681036106f357905f61527f565b503d61530b565b5f90815260056020526040902080546001600160a01b0319169055565b905f602091828151910182855af115610a02575f513d6153ab57506001600160a01b0381163b155b6153895750565b604051635274afe760e01b81526001600160a01b039091166004820152602490fd5b60011415615382565b6153c190949391946149d7565b9182511561542b575f5b8351811015615423576001906127106153f16001600160601b0360206118b4858a6139bd565b04806153ff575b50016153cb565b61541d90838060a01b0361541384896139bd565b515116868661427b565b5f6153f8565b505050509050565b5050509050565b307f00000000000000000000000000000000000000000000000000000000000000006001600160a01b03161480615523575b1561548d577f000000000000000000000000000000000000000000000000000000000000000090565b60405160208101907f8b73c3c69bb8fe3d512ecc4cf759cc79239f7b179b0ffacaa9a75d522b39400f82527f000000000000000000000000000000000000000000000000000000000000000060408201527f000000000000000000000000000000000000000000000000000000000000000060608201524660808201523060a082015260a0815261551d816133aa565b51902090565b507f00000000000000000000000000000000000000000000000000000000000000004614615464565b815191906041830361557c576155759250602082015190606060408401519301515f1a906157b2565b9192909190565b50505f9160029190565b60048110156155f55780615598575050565b600181036155b25760405163f645eedf60e01b8152600490fd5b600281036155d35760405163fce698f760e01b815260048101839052602490fd5b6003146155dd5750565b602490604051906335e2f38360e21b82526004820152fd5b634e487b7160e01b5f52602160045260245ffd5b5f525f8051602061584b83398151915260205260405f2060ff6004820154169081615632575090565b600291500154421090565b60ff811461567b5760ff811690601f8211615669576040519161565f83613374565b8252602082015290565b604051632cd44ac360e21b8152600490fd5b50604051600e54815f61568d83613454565b8083526020936001908181169081156156f657506001146156b7575b5050613d26925003826133e0565b90939150600e5f52815f20935f915b8183106156de575050613d2693508201015f806156a9565b855487840185015294850194869450918301916156c6565b915050613d2694925060ff191682840152151560051b8201015f806156a9565b60ff81146157385760ff811690601f8211615669576040519161565f83613374565b50604051600f54815f61574a83613454565b8083526020936001908181169081156156f65750600114615773575050613d26925003826133e0565b90939150600f5f52815f20935f915b81831061579a575050613d2693508201015f806156a9565b85548784018501529485019486945091830191615782565b91906fa2a8918ca85bafe22016d0b997e4df60600160ff1b03841161581f579160209360809260ff5f9560405194855216868401526040830152606082015282805260015afa15610a02575f516001600160a01b0381161561581557905f905f90565b505f906001905f90565b5050505f916003919056fe2f8788117e7eff1d82e926ec794901d17c78024a50270940304540a733656f0defbf0e557c8acb6e3deb011ac697e5553b802e419ed4680395101c0ddc5e8723b19546dff01e856fb3f010c267a7b1c60363cf8a4664e21cc89c26224620214e1aa44fcb526383bd2f7c6231f8c09a41edc5b654966336907d6f785a5b3d28921aa44fcb526383bd2f7c6231f8c09a41edc5b654966336907d6f785a5b3d288fde1159fbbeca73b2aca5752c42b257ca18171ae3b3d3bbf22c7938e3a961a0cb1aa44fcb526383bd2f7c6231f8c09a41edc5b654966336907d6f785a5b3d28931aa44fcb526383bd2f7c6231f8c09a41edc5b654966336907d6f785a5b3d2891ddf252ad1be2c89b69c2b068fc378daa952ba7f163c4a11628f55a4df523b3ef3b652633b3026fa70803ad50b58b0ae884cefe3497643f62c67c466f41a6e88d6b770677edae0e90cca492948fa872f24dbe9c82ebeb8d39118b033a5e1bd3e01aa44fcb526383bd2f7c6231f8c09a41edc5b654966336907d6f785a5b3d28906b770677edae0e90cca492948fa872f24dbe9c82ebeb8d39118b033a5e1bd3dfa264697066735822122099f8c88bfc0d83075ccf999904e421431f9e6c6dc11ed0a63e9dabddef92b9c064736f6c634300081800332f8788117e7eff1d82e926ec794901d17c78024a50270940304540a733656f0d405787fa12a823e0f2b7631cc41b3ba8828b3321ca811111fa75cd3aa3bb5aceb10e2d527612073b26eecdfd717e6a320cf44b4afac2b0732d9fcbe2b7fa0cf6c624b66cc0138b8fabc209247f72d758e1cf3343756d543badbf24212bed8c15ad3228b676f7d3cd4284a5443f17f1962b36e491b30a40b2405849e597ba5fb5","linkReferences":{}},"methodIdentifiers":{"DEFAULT_ADMIN_ROLE()":"a217fddf","OWNER_ROLE()":"e58378bb","PAYMENT_TOKEN()":"877c86fb","PLATFORM_ROLE()":"70824c5c","RENTER_ROLE()":"b97c9f77","approve(address,uint256)":"095ea7b3","balanceOf(address)":"70a08231","burn(uint256)":"42966c68","burnWithSignature(uint256,uint256,bytes)":"fc68c689","eip712Domain()":"84b0196e","endRental(uint256)":"97491d6f","endRentalWithSignature(uint256,address,uint256,bytes)":"35e4d0a9","exists(uint256)":"4f558e79","extendRental(uint256,uint256,uint256)":"c8a9aabc","extendRentalWithSignature(uint256,uint256,uint256,address,uint256,bytes)":"314cfd33","getApproved(uint256)":"081812fc","getMintRoyaltyReceivers(uint256)":"463dace0","getRentalInfo(uint256)":"27dc3fbd","getRoleAdmin(bytes32)":"248a9ca3","getTransferRoyaltyReceivers(uint256)":"5e27a775","grantRole(bytes32,address)":"2f2ff15d","hasRole(bytes32,address)":"91d14854","initiateTransferWithRoyalty(address,uint256,uint256)":"10c551c5","initiateTransferWithRoyaltyWithSignature(address,uint256,uint256,uint256,bytes)":"4fbda6fc","isApprovedForAll(address,address)":"e985e9c5","isRented(uint256)":"aa15d40f","isTransferRoyaltyRequired(address,address,uint256,uint256)":"1fc7f7e9","mint(address,uint256,string,(address,uint96)[])":"cf9122d4","mintFor(address,uint256,string,(address,uint96)[])":"1169051d","name()":"06fdde03","ownerOf(uint256)":"6352211e","pause()":"8456cb59","paused()":"5c975abb","payTransferRoyalty(address,uint256,uint256)":"1eae6ed7","payTransferRoyaltyWithSignature(address,uint256,uint256,address,uint256,bytes)":"f60e11f2","paymentToken()":"3013ce29","platformAddress()":"dbe55e56","platformCommission()":"694e91b8","renounceRole(bytes32,address)":"36568abe","rentToken(uint256,uint256,uint256,address)":"6eddaebf","rentTokenWithSignature(uint256,uint256,uint256,address,uint256,bytes)":"34d6a91c","revokeRole(bytes32,address)":"d547741f","royaltyInfo(uint256,uint256)":"2a55205a","royaltyPercentage()":"8a71bb2d","safeTransferFrom(address,address,uint256)":"42842e0e","safeTransferFrom(address,address,uint256,bytes)":"b88d4fde","sellToken(address,uint256,address)":"55a97632","sellTokenWithSignature(address,uint256,uint256,bytes)":"7ad75d8d","setApprovalForAll(address,bool)":"a22cb465","setBaseURI(string)":"55f804b3","setMintRoyalties((address,uint96)[])":"492ae5a3","setPlatformCommission(uint96,address)":"f249fd16","setPrice(uint256,uint256)":"f7d97577","setRoyaltyPercentage(uint96)":"9f6d68b0","setTokenMintRoyalties(uint256,(address,uint96)[])":"0a0a3515","setTokenTransferRoyalties(uint256,(address,uint96)[])":"e5f2e0cc","setTokenURI(uint256,string)":"162094c4","setTokenURIWithSignature(uint256,string,uint256,bytes)":"a2c98a19","setTransferRoyalties((address,uint96)[])":"602481b6","supportsInterface(bytes4)":"01ffc9a7","symbol()":"95d89b41","tokenByIndex(uint256)":"4f6ccce7","tokenOfOwnerByIndex(address,uint256)":"2f745c59","tokenPrices(uint256)":"e5afe3e6","tokenURI(uint256)":"c87b56dd","tokenURIs(uint256)":"6c8b703f","totalSupply()":"18160ddd","transferFrom(address,address,uint256)":"23b872dd","unpause()":"3f4ba83a","updatePlatformCommission(uint96,address)":"9b1d4b1b"},"id":43}