{"abi":[{"type":"constructor","inputs":[{"name":"paymentToken_","type":"address","internalType":"address"},{"name":"baseTokenURI_","type":"string","internalType":"string"},{"name":"platformAddress_","type":"address","internalType":"address"},{"name":"platformCommissionPercentage_","type":"uint96","internalType":"uint96"},{"name":"adminAddress_","type":"address","internalType":"address"},{"name":"totalSupply_","type":"uint256","internalType":"uint256"}],"stateMutability":"nonpayable"},{"type":"function","name":"DEFAULT_ADMIN_ROLE","inputs":[],"outputs":[{"name":"","type":"bytes32","internalType":"bytes32"}],"stateMutability":"view"},{"type":"function","name":"OWNER_ROLE","inputs":[],"outputs":[{"name":"","type":"bytes32","internalType":"bytes32"}],"stateMutability":"view"},{"type":"function","name":"PAYMENT_TOKEN","inputs":[],"outputs":[{"name":"","type":"address","internalType":"contract IERC20"}],"stateMutability":"view"},{"type":"function","name":"PLATFORM_ROLE","inputs":[],"outputs":[{"name":"","type":"bytes32","internalType":"bytes32"}],"stateMutability":"view"},{"type":"function","name":"RENTER_ROLE","inputs":[],"outputs":[{"name":"","type":"bytes32","internalType":"bytes32"}],"stateMutability":"view"},{"type":"function","name":"_dummyGetApproved","inputs":[{"name":"","type":"uint256","internalType":"uint256"}],"outputs":[{"name":"","type":"address","internalType":"address"}],"stateMutability":"pure"},{"type":"function","name":"_dummyTokenByIndex","inputs":[{"name":"","type":"uint256","internalType":"uint256"}],"outputs":[{"name":"","type":"uint256","internalType":"uint256"}],"stateMutability":"pure"},{"type":"function","name":"_getTotalSupply","inputs":[],"outputs":[{"name":"","type":"uint256","internalType":"uint256"}],"stateMutability":"view"},{"type":"function","name":"balanceOf","inputs":[{"name":"account","type":"address","internalType":"address"},{"name":"id","type":"uint256","internalType":"uint256"}],"outputs":[{"name":"","type":"uint256","internalType":"uint256"}],"stateMutability":"view"},{"type":"function","name":"balanceOfBatch","inputs":[{"name":"accounts","type":"address[]","internalType":"address[]"},{"name":"ids","type":"uint256[]","internalType":"uint256[]"}],"outputs":[{"name":"","type":"uint256[]","internalType":"uint256[]"}],"stateMutability":"view"},{"type":"function","name":"burn","inputs":[{"name":"tokenId","type":"uint256","internalType":"uint256"},{"name":"amount","type":"uint256","internalType":"uint256"}],"outputs":[],"stateMutability":"nonpayable"},{"type":"function","name":"burnBatch","inputs":[{"name":"tokenIds","type":"uint256[]","internalType":"uint256[]"},{"name":"amounts","type":"uint256[]","internalType":"uint256[]"}],"outputs":[],"stateMutability":"nonpayable"},{"type":"function","name":"burnWithSignature","inputs":[{"name":"tokenId","type":"uint256","internalType":"uint256"},{"name":"amount","type":"uint256","internalType":"uint256"},{"name":"owner","type":"address","internalType":"address"},{"name":"deadline","type":"uint256","internalType":"uint256"},{"name":"signature","type":"bytes","internalType":"bytes"}],"outputs":[],"stateMutability":"nonpayable"},{"type":"function","name":"eip712Domain","inputs":[],"outputs":[{"name":"fields","type":"bytes1","internalType":"bytes1"},{"name":"name","type":"string","internalType":"string"},{"name":"version","type":"string","internalType":"string"},{"name":"chainId","type":"uint256","internalType":"uint256"},{"name":"verifyingContract","type":"address","internalType":"address"},{"name":"salt","type":"bytes32","internalType":"bytes32"},{"name":"extensions","type":"uint256[]","internalType":"uint256[]"}],"stateMutability":"view"},{"type":"function","name":"endRental","inputs":[{"name":"tokenId","type":"uint256","internalType":"uint256"}],"outputs":[],"stateMutability":"nonpayable"},{"type":"function","name":"endRentalWithSignature","inputs":[{"name":"tokenId","type":"uint256","internalType":"uint256"},{"name":"signer","type":"address","internalType":"address"},{"name":"deadline","type":"uint256","internalType":"uint256"},{"name":"signature","type":"bytes","internalType":"bytes"}],"outputs":[],"stateMutability":"nonpayable"},{"type":"function","name":"exists","inputs":[{"name":"tokenId","type":"uint256","internalType":"uint256"}],"outputs":[{"name":"","type":"bool","internalType":"bool"}],"stateMutability":"view"},{"type":"function","name":"extendRental","inputs":[{"name":"tokenId","type":"uint256","internalType":"uint256"},{"name":"additionalDuration","type":"uint256","internalType":"uint256"},{"name":"additionalPayment","type":"uint256","internalType":"uint256"}],"outputs":[],"stateMutability":"nonpayable"},{"type":"function","name":"extendRentalWithSignature","inputs":[{"name":"tokenId","type":"uint256","internalType":"uint256"},{"name":"additionalDuration","type":"uint256","internalType":"uint256"},{"name":"additionalPayment","type":"uint256","internalType":"uint256"},{"name":"tokenOwner","type":"address","internalType":"address"},{"name":"deadline","type":"uint256","internalType":"uint256"},{"name":"signature","type":"bytes","internalType":"bytes"}],"outputs":[],"stateMutability":"nonpayable"},{"type":"function","name":"getMintRoyaltyReceivers","inputs":[{"name":"tokenId","type":"uint256","internalType":"uint256"}],"outputs":[{"name":"","type":"tuple[]","internalType":"struct KamiNFTCore.RoyaltyData[]","components":[{"name":"receiver","type":"address","internalType":"address"},{"name":"feeNumerator","type":"uint96","internalType":"uint96"}]}],"stateMutability":"view"},{"type":"function","name":"getRentalInfo","inputs":[{"name":"tokenId","type":"uint256","internalType":"uint256"}],"outputs":[{"name":"renter","type":"address","internalType":"address"},{"name":"startTime","type":"uint256","internalType":"uint256"},{"name":"endTime","type":"uint256","internalType":"uint256"},{"name":"rentalPrice","type":"uint256","internalType":"uint256"},{"name":"active","type":"bool","internalType":"bool"}],"stateMutability":"view"},{"type":"function","name":"getRoleAdmin","inputs":[{"name":"role","type":"bytes32","internalType":"bytes32"}],"outputs":[{"name":"","type":"bytes32","internalType":"bytes32"}],"stateMutability":"view"},{"type":"function","name":"getRoyaltyInfo","inputs":[{"name":"tokenId","type":"uint256","internalType":"uint256"}],"outputs":[{"name":"receivers","type":"address[]","internalType":"address[]"},{"name":"amounts","type":"uint256[]","internalType":"uint256[]"}],"stateMutability":"view"},{"type":"function","name":"getTotalMinted","inputs":[{"name":"tokenId","type":"uint256","internalType":"uint256"}],"outputs":[{"name":"","type":"uint256","internalType":"uint256"}],"stateMutability":"view"},{"type":"function","name":"getTransferRoyaltyReceivers","inputs":[{"name":"tokenId","type":"uint256","internalType":"uint256"}],"outputs":[{"name":"","type":"tuple[]","internalType":"struct KamiNFTCore.RoyaltyData[]","components":[{"name":"receiver","type":"address","internalType":"address"},{"name":"feeNumerator","type":"uint96","internalType":"uint96"}]}],"stateMutability":"view"},{"type":"function","name":"grantRole","inputs":[{"name":"role","type":"bytes32","internalType":"bytes32"},{"name":"account","type":"address","internalType":"address"}],"outputs":[],"stateMutability":"nonpayable"},{"type":"function","name":"hasActiveRentals","inputs":[{"name":"user","type":"address","internalType":"address"}],"outputs":[{"name":"","type":"bool","internalType":"bool"}],"stateMutability":"view"},{"type":"function","name":"hasRole","inputs":[{"name":"role","type":"bytes32","internalType":"bytes32"},{"name":"account","type":"address","internalType":"address"}],"outputs":[{"name":"","type":"bool","internalType":"bool"}],"stateMutability":"view"},{"type":"function","name":"initiateTransferWithRoyalty","inputs":[{"name":"to","type":"address","internalType":"address"},{"name":"tokenId","type":"uint256","internalType":"uint256"},{"name":"price","type":"uint256","internalType":"uint256"}],"outputs":[],"stateMutability":"nonpayable"},{"type":"function","name":"initiateTransferWithRoyaltyWithSignature","inputs":[{"name":"to","type":"address","internalType":"address"},{"name":"tokenId","type":"uint256","internalType":"uint256"},{"name":"price","type":"uint256","internalType":"uint256"},{"name":"tokenOwner","type":"address","internalType":"address"},{"name":"deadline","type":"uint256","internalType":"uint256"},{"name":"signature","type":"bytes","internalType":"bytes"}],"outputs":[],"stateMutability":"nonpayable"},{"type":"function","name":"isApprovedForAll","inputs":[{"name":"account","type":"address","internalType":"address"},{"name":"operator","type":"address","internalType":"address"}],"outputs":[{"name":"","type":"bool","internalType":"bool"}],"stateMutability":"view"},{"type":"function","name":"isRented","inputs":[{"name":"tokenId","type":"uint256","internalType":"uint256"}],"outputs":[{"name":"","type":"bool","internalType":"bool"}],"stateMutability":"view"},{"type":"function","name":"isTransferRoyaltyRequired","inputs":[{"name":"tokenId","type":"uint256","internalType":"uint256"},{"name":"price","type":"uint256","internalType":"uint256"}],"outputs":[{"name":"","type":"bool","internalType":"bool"}],"stateMutability":"view"},{"type":"function","name":"maxTotalSupply","inputs":[],"outputs":[{"name":"","type":"uint256","internalType":"uint256"}],"stateMutability":"view"},{"type":"function","name":"mint","inputs":[{"name":"recipient","type":"address","internalType":"address"},{"name":"amount","type":"uint256","internalType":"uint256"},{"name":"tokenPrice","type":"uint256","internalType":"uint256"},{"name":"tokenURI","type":"string","internalType":"string"},{"name":"mintRoyalties","type":"tuple[]","internalType":"struct KamiNFTCore.RoyaltyData[]","components":[{"name":"receiver","type":"address","internalType":"address"},{"name":"feeNumerator","type":"uint96","internalType":"uint96"}]}],"outputs":[],"stateMutability":"nonpayable"},{"type":"function","name":"mintBatch","inputs":[{"name":"recipients","type":"address[]","internalType":"address[]"},{"name":"amounts","type":"uint256[]","internalType":"uint256[]"},{"name":"prices","type":"uint256[]","internalType":"uint256[]"},{"name":"uris","type":"string[]","internalType":"string[]"}],"outputs":[],"stateMutability":"nonpayable"},{"type":"function","name":"mintFor","inputs":[{"name":"recipient","type":"address","internalType":"address"},{"name":"amount","type":"uint256","internalType":"uint256"},{"name":"tokenPrice","type":"uint256","internalType":"uint256"},{"name":"tokenURI","type":"string","internalType":"string"},{"name":"mintRoyalties","type":"tuple[]","internalType":"struct KamiNFTCore.RoyaltyData[]","components":[{"name":"receiver","type":"address","internalType":"address"},{"name":"feeNumerator","type":"uint96","internalType":"uint96"}]}],"outputs":[],"stateMutability":"nonpayable"},{"type":"function","name":"nextTokenId","inputs":[],"outputs":[{"name":"","type":"uint256","internalType":"uint256"}],"stateMutability":"view"},{"type":"function","name":"pause","inputs":[],"outputs":[],"stateMutability":"nonpayable"},{"type":"function","name":"paused","inputs":[],"outputs":[{"name":"","type":"bool","internalType":"bool"}],"stateMutability":"view"},{"type":"function","name":"payTransferRoyalty","inputs":[{"name":"seller","type":"address","internalType":"address"},{"name":"tokenId","type":"uint256","internalType":"uint256"},{"name":"price","type":"uint256","internalType":"uint256"}],"outputs":[],"stateMutability":"nonpayable"},{"type":"function","name":"payTransferRoyaltyWithSignature","inputs":[{"name":"tokenId","type":"uint256","internalType":"uint256"},{"name":"price","type":"uint256","internalType":"uint256"},{"name":"buyer","type":"address","internalType":"address"},{"name":"seller","type":"address","internalType":"address"},{"name":"deadline","type":"uint256","internalType":"uint256"},{"name":"signature","type":"bytes","internalType":"bytes"}],"outputs":[],"stateMutability":"nonpayable"},{"type":"function","name":"paymentToken","inputs":[],"outputs":[{"name":"","type":"address","internalType":"address"}],"stateMutability":"view"},{"type":"function","name":"platformAddress","inputs":[],"outputs":[{"name":"","type":"address","internalType":"address"}],"stateMutability":"view"},{"type":"function","name":"platformCommission","inputs":[],"outputs":[{"name":"","type":"uint96","internalType":"uint96"}],"stateMutability":"view"},{"type":"function","name":"platformCommissionPercentage","inputs":[],"outputs":[{"name":"","type":"uint96","internalType":"uint96"}],"stateMutability":"view"},{"type":"function","name":"renounceRole","inputs":[{"name":"role","type":"bytes32","internalType":"bytes32"},{"name":"callerConfirmation","type":"address","internalType":"address"}],"outputs":[],"stateMutability":"nonpayable"},{"type":"function","name":"rentToken","inputs":[{"name":"tokenId","type":"uint256","internalType":"uint256"},{"name":"duration","type":"uint256","internalType":"uint256"},{"name":"rentalPrice","type":"uint256","internalType":"uint256"},{"name":"renter","type":"address","internalType":"address"},{"name":"tokenOwner","type":"address","internalType":"address"}],"outputs":[],"stateMutability":"nonpayable"},{"type":"function","name":"rentTokenWithSignature","inputs":[{"name":"tokenId","type":"uint256","internalType":"uint256"},{"name":"duration","type":"uint256","internalType":"uint256"},{"name":"rentalPrice","type":"uint256","internalType":"uint256"},{"name":"renter","type":"address","internalType":"address"},{"name":"tokenOwner","type":"address","internalType":"address"},{"name":"deadline","type":"uint256","internalType":"uint256"},{"name":"signature","type":"bytes","internalType":"bytes"}],"outputs":[],"stateMutability":"nonpayable"},{"type":"function","name":"revokeRole","inputs":[{"name":"role","type":"bytes32","internalType":"bytes32"},{"name":"account","type":"address","internalType":"address"}],"outputs":[],"stateMutability":"nonpayable"},{"type":"function","name":"royaltyInfo","inputs":[{"name":"tokenId","type":"uint256","internalType":"uint256"},{"name":"","type":"uint256","internalType":"uint256"}],"outputs":[{"name":"receiver","type":"address","internalType":"address"},{"name":"royaltyAmount","type":"uint256","internalType":"uint256"}],"stateMutability":"view"},{"type":"function","name":"royaltyPercentage","inputs":[],"outputs":[{"name":"","type":"uint96","internalType":"uint96"}],"stateMutability":"view"},{"type":"function","name":"safeBatchTransferFrom","inputs":[{"name":"from","type":"address","internalType":"address"},{"name":"to","type":"address","internalType":"address"},{"name":"ids","type":"uint256[]","internalType":"uint256[]"},{"name":"values","type":"uint256[]","internalType":"uint256[]"},{"name":"data","type":"bytes","internalType":"bytes"}],"outputs":[],"stateMutability":"nonpayable"},{"type":"function","name":"safeTransferFrom","inputs":[{"name":"from","type":"address","internalType":"address"},{"name":"to","type":"address","internalType":"address"},{"name":"id","type":"uint256","internalType":"uint256"},{"name":"value","type":"uint256","internalType":"uint256"},{"name":"data","type":"bytes","internalType":"bytes"}],"outputs":[],"stateMutability":"nonpayable"},{"type":"function","name":"sellToken","inputs":[{"name":"to","type":"address","internalType":"address"},{"name":"tokenId","type":"uint256","internalType":"uint256"},{"name":"amount","type":"uint256","internalType":"uint256"},{"name":"seller","type":"address","internalType":"address"}],"outputs":[],"stateMutability":"nonpayable"},{"type":"function","name":"sellTokenWithSignature","inputs":[{"name":"to","type":"address","internalType":"address"},{"name":"tokenId","type":"uint256","internalType":"uint256"},{"name":"amount","type":"uint256","internalType":"uint256"},{"name":"seller","type":"address","internalType":"address"},{"name":"deadline","type":"uint256","internalType":"uint256"},{"name":"signature","type":"bytes","internalType":"bytes"}],"outputs":[],"stateMutability":"nonpayable"},{"type":"function","name":"setApprovalForAll","inputs":[{"name":"operator","type":"address","internalType":"address"},{"name":"approved","type":"bool","internalType":"bool"}],"outputs":[],"stateMutability":"nonpayable"},{"type":"function","name":"setBaseURI","inputs":[{"name":"baseURI","type":"string","internalType":"string"}],"outputs":[],"stateMutability":"nonpayable"},{"type":"function","name":"setMintRoyalties","inputs":[{"name":"royalties","type":"tuple[]","internalType":"struct KamiNFTCore.RoyaltyData[]","components":[{"name":"receiver","type":"address","internalType":"address"},{"name":"feeNumerator","type":"uint96","internalType":"uint96"}]}],"outputs":[],"stateMutability":"nonpayable"},{"type":"function","name":"setPlatformCommission","inputs":[{"name":"newPlatformCommissionPercentage","type":"uint96","internalType":"uint96"},{"name":"newPlatformAddress","type":"address","internalType":"address"}],"outputs":[],"stateMutability":"nonpayable"},{"type":"function","name":"setPrice","inputs":[{"name":"tokenId","type":"uint256","internalType":"uint256"},{"name":"newPrice","type":"uint256","internalType":"uint256"}],"outputs":[],"stateMutability":"nonpayable"},{"type":"function","name":"setRoyaltyPercentage","inputs":[{"name":"newRoyaltyPercentage","type":"uint96","internalType":"uint96"}],"outputs":[],"stateMutability":"nonpayable"},{"type":"function","name":"setTokenMintRoyalties","inputs":[{"name":"tokenId","type":"uint256","internalType":"uint256"},{"name":"royalties","type":"tuple[]","internalType":"struct KamiNFTCore.RoyaltyData[]","components":[{"name":"receiver","type":"address","internalType":"address"},{"name":"feeNumerator","type":"uint96","internalType":"uint96"}]}],"outputs":[],"stateMutability":"nonpayable"},{"type":"function","name":"setTokenTotalSupply","inputs":[{"name":"tokenId","type":"uint256","internalType":"uint256"},{"name":"maxSupply","type":"uint256","internalType":"uint256"}],"outputs":[],"stateMutability":"nonpayable"},{"type":"function","name":"setTokenTransferRoyalties","inputs":[{"name":"tokenId","type":"uint256","internalType":"uint256"},{"name":"royalties","type":"tuple[]","internalType":"struct KamiNFTCore.RoyaltyData[]","components":[{"name":"receiver","type":"address","internalType":"address"},{"name":"feeNumerator","type":"uint96","internalType":"uint96"}]}],"outputs":[],"stateMutability":"nonpayable"},{"type":"function","name":"setTokenURI","inputs":[{"name":"tokenId","type":"uint256","internalType":"uint256"},{"name":"newTokenURI","type":"string","internalType":"string"}],"outputs":[],"stateMutability":"nonpayable"},{"type":"function","name":"setTokenURIWithSignature","inputs":[{"name":"tokenId","type":"uint256","internalType":"uint256"},{"name":"newTokenURI","type":"string","internalType":"string"},{"name":"deadline","type":"uint256","internalType":"uint256"},{"name":"signature","type":"bytes","internalType":"bytes"}],"outputs":[],"stateMutability":"nonpayable"},{"type":"function","name":"setTotalSupply","inputs":[{"name":"maxSupply","type":"uint256","internalType":"uint256"}],"outputs":[],"stateMutability":"nonpayable"},{"type":"function","name":"setTransferRoyalties","inputs":[{"name":"royalties","type":"tuple[]","internalType":"struct KamiNFTCore.RoyaltyData[]","components":[{"name":"receiver","type":"address","internalType":"address"},{"name":"feeNumerator","type":"uint96","internalType":"uint96"}]}],"outputs":[],"stateMutability":"nonpayable"},{"type":"function","name":"supportsInterface","inputs":[{"name":"interfaceId","type":"bytes4","internalType":"bytes4"}],"outputs":[{"name":"","type":"bool","internalType":"bool"}],"stateMutability":"view"},{"type":"function","name":"tokenPrices","inputs":[{"name":"","type":"uint256","internalType":"uint256"}],"outputs":[{"name":"","type":"uint256","internalType":"uint256"}],"stateMutability":"view"},{"type":"function","name":"tokenURIs","inputs":[{"name":"","type":"uint256","internalType":"uint256"}],"outputs":[{"name":"","type":"string","internalType":"string"}],"stateMutability":"view"},{"type":"function","name":"totalSupply","inputs":[],"outputs":[{"name":"","type":"uint256","internalType":"uint256"}],"stateMutability":"view"},{"type":"function","name":"totalSupply","inputs":[{"name":"tokenId","type":"uint256","internalType":"uint256"}],"outputs":[{"name":"","type":"uint256","internalType":"uint256"}],"stateMutability":"view"},{"type":"function","name":"unpause","inputs":[],"outputs":[],"stateMutability":"nonpayable"},{"type":"function","name":"uri","inputs":[{"name":"tokenId","type":"uint256","internalType":"uint256"}],"outputs":[{"name":"","type":"string","internalType":"string"}],"stateMutability":"view"},{"type":"event","name":"ApprovalForAll","inputs":[{"name":"account","type":"address","indexed":true,"internalType":"address"},{"name":"operator","type":"address","indexed":true,"internalType":"address"},{"name":"approved","type":"bool","indexed":false,"internalType":"bool"}],"anonymous":false},{"type":"event","name":"EIP712DomainChanged","inputs":[],"anonymous":false},{"type":"event","name":"Paused","inputs":[{"name":"account","type":"address","indexed":false,"internalType":"address"}],"anonymous":false},{"type":"event","name":"RentalEnded","inputs":[{"name":"owner","type":"address","indexed":true,"internalType":"address"},{"name":"renter","type":"address","indexed":true,"internalType":"address"},{"name":"tokenId","type":"uint256","indexed":true,"internalType":"uint256"}],"anonymous":false},{"type":"event","name":"RentalExtended","inputs":[{"name":"renter","type":"address","indexed":true,"internalType":"address"},{"name":"tokenId","type":"uint256","indexed":true,"internalType":"uint256"},{"name":"newEndTime","type":"uint256","indexed":false,"internalType":"uint256"},{"name":"additionalPayment","type":"uint256","indexed":false,"internalType":"uint256"}],"anonymous":false},{"type":"event","name":"RoleAdminChanged","inputs":[{"name":"role","type":"bytes32","indexed":true,"internalType":"bytes32"},{"name":"previousAdminRole","type":"bytes32","indexed":true,"internalType":"bytes32"},{"name":"newAdminRole","type":"bytes32","indexed":true,"internalType":"bytes32"}],"anonymous":false},{"type":"event","name":"RoleGranted","inputs":[{"name":"role","type":"bytes32","indexed":true,"internalType":"bytes32"},{"name":"account","type":"address","indexed":true,"internalType":"address"},{"name":"sender","type":"address","indexed":true,"internalType":"address"}],"anonymous":false},{"type":"event","name":"RoleRevoked","inputs":[{"name":"role","type":"bytes32","indexed":true,"internalType":"bytes32"},{"name":"account","type":"address","indexed":true,"internalType":"address"},{"name":"sender","type":"address","indexed":true,"internalType":"address"}],"anonymous":false},{"type":"event","name":"TokenMinted","inputs":[{"name":"to","type":"address","indexed":true,"internalType":"address"},{"name":"tokenId","type":"uint256","indexed":true,"internalType":"uint256"},{"name":"amount","type":"uint256","indexed":false,"internalType":"uint256"},{"name":"price","type":"uint256","indexed":false,"internalType":"uint256"}],"anonymous":false},{"type":"event","name":"TokenRented","inputs":[{"name":"owner","type":"address","indexed":true,"internalType":"address"},{"name":"renter","type":"address","indexed":true,"internalType":"address"},{"name":"tokenId","type":"uint256","indexed":true,"internalType":"uint256"},{"name":"startTime","type":"uint256","indexed":false,"internalType":"uint256"},{"name":"endTime","type":"uint256","indexed":false,"internalType":"uint256"},{"name":"price","type":"uint256","indexed":false,"internalType":"uint256"}],"anonymous":false},{"type":"event","name":"TokenSold","inputs":[{"name":"from","type":"address","indexed":true,"internalType":"address"},{"name":"to","type":"address","indexed":true,"internalType":"address"},{"name":"tokenId","type":"uint256","indexed":true,"internalType":"uint256"},{"name":"amount","type":"uint256","indexed":false,"internalType":"uint256"},{"name":"price","type":"uint256","indexed":false,"internalType":"uint256"}],"anonymous":false},{"type":"event","name":"TransferBatch","inputs":[{"name":"operator","type":"address","indexed":true,"internalType":"address"},{"name":"from","type":"address","indexed":true,"internalType":"address"},{"name":"to","type":"address","indexed":true,"internalType":"address"},{"name":"ids","type":"uint256[]","indexed":false,"internalType":"uint256[]"},{"name":"values","type":"uint256[]","indexed":false,"internalType":"uint256[]"}],"anonymous":false},{"type":"event","name":"TransferSingle","inputs":[{"name":"operator","type":"address","indexed":true,"internalType":"address"},{"name":"from","type":"address","indexed":true,"internalType":"address"},{"name":"to","type":"address","indexed":true,"internalType":"address"},{"name":"id","type":"uint256","indexed":false,"internalType":"uint256"},{"name":"value","type":"uint256","indexed":false,"internalType":"uint256"}],"anonymous":false},{"type":"event","name":"URI","inputs":[{"name":"value","type":"string","indexed":false,"internalType":"string"},{"name":"id","type":"uint256","indexed":true,"internalType":"uint256"}],"anonymous":false},{"type":"event","name":"Unpaused","inputs":[{"name":"account","type":"address","indexed":false,"internalType":"address"}],"anonymous":false},{"type":"error","name":"AccessControlBadConfirmation","inputs":[]},{"type":"error","name":"AccessControlUnauthorizedAccount","inputs":[{"name":"account","type":"address","internalType":"address"},{"name":"neededRole","type":"bytes32","internalType":"bytes32"}]},{"type":"error","name":"ECDSAInvalidSignature","inputs":[]},{"type":"error","name":"ECDSAInvalidSignatureLength","inputs":[{"name":"length","type":"uint256","internalType":"uint256"}]},{"type":"error","name":"ECDSAInvalidSignatureS","inputs":[{"name":"s","type":"bytes32","internalType":"bytes32"}]},{"type":"error","name":"ERC1155InsufficientBalance","inputs":[{"name":"sender","type":"address","internalType":"address"},{"name":"balance","type":"uint256","internalType":"uint256"},{"name":"needed","type":"uint256","internalType":"uint256"},{"name":"tokenId","type":"uint256","internalType":"uint256"}]},{"type":"error","name":"ERC1155InvalidApprover","inputs":[{"name":"approver","type":"address","internalType":"address"}]},{"type":"error","name":"ERC1155InvalidArrayLength","inputs":[{"name":"idsLength","type":"uint256","internalType":"uint256"},{"name":"valuesLength","type":"uint256","internalType":"uint256"}]},{"type":"error","name":"ERC1155InvalidOperator","inputs":[{"name":"operator","type":"address","internalType":"address"}]},{"type":"error","name":"ERC1155InvalidReceiver","inputs":[{"name":"receiver","type":"address","internalType":"address"}]},{"type":"error","name":"ERC1155InvalidSender","inputs":[{"name":"sender","type":"address","internalType":"address"}]},{"type":"error","name":"ERC1155MissingApprovalForAll","inputs":[{"name":"operator","type":"address","internalType":"address"},{"name":"owner","type":"address","internalType":"address"}]},{"type":"error","name":"ERC2981InvalidDefaultRoyalty","inputs":[{"name":"numerator","type":"uint256","internalType":"uint256"},{"name":"denominator","type":"uint256","internalType":"uint256"}]},{"type":"error","name":"ERC2981InvalidDefaultRoyaltyReceiver","inputs":[{"name":"receiver","type":"address","internalType":"address"}]},{"type":"error","name":"ERC2981InvalidTokenRoyalty","inputs":[{"name":"tokenId","type":"uint256","internalType":"uint256"},{"name":"numerator","type":"uint256","internalType":"uint256"},{"name":"denominator","type":"uint256","internalType":"uint256"}]},{"type":"error","name":"ERC2981InvalidTokenRoyaltyReceiver","inputs":[{"name":"tokenId","type":"uint256","internalType":"uint256"},{"name":"receiver","type":"address","internalType":"address"}]},{"type":"error","name":"EnforcedPause","inputs":[]},{"type":"error","name":"ExpectedPause","inputs":[]},{"type":"error","name":"InvalidShortString","inputs":[]},{"type":"error","name":"InvalidSigner","inputs":[]},{"type":"error","name":"RoyaltiesMustSumTo10000","inputs":[]},{"type":"error","name":"RoyaltyPercentageTooHigh","inputs":[]},{"type":"error","name":"SafeERC20FailedOperation","inputs":[{"name":"token","type":"address","internalType":"address"}]},{"type":"error","name":"SignatureExpired","inputs":[]},{"type":"error","name":"StringTooLong","inputs":[{"name":"str","type":"string","internalType":"string"}]},{"type":"error","name":"TokenDoesNotExist","inputs":[]},{"type":"error","name":"TokenSupplyExceeded","inputs":[]}],"bytecode":{"object":"0x61018080604052346200076b576200874d80380380916200002182856200078b565b8339810160c0828203126200076b576200003b82620007af565b60208301519092906001600160401b0381116200076b57810182601f820112156200076b5780516001600160401b0381116200053957604051936200008b601f8301601f1916602001866200078b565b818552602082840101116200076b57620000ac9160208086019101620007c4565b620000ba60408201620007af565b606082015190926001600160601b03821682036200076b5760a0620000e260808501620007af565b93015194604051620000f4816200076f565b60098152684b414d49313135354360b81b60208201526040519062000119826200076f565b60018252603160f81b602083015283516001600160401b0381116200053957600354600181811c9116801562000760575b60208210146200051a57601f8111620006f8575b50806020601f821160011462000670575f9162000664575b508160011b915f199060031b1c1916176003555b620001958162000990565b61012052620001a48262000b2e565b6101405260208151910120908160e0526020815191012080610100524660a052604051917f8b73c3c69bb8fe3d512ecc4cf759cc79239f7b179b0ffacaa9a75d522b39400f6020840152604083015260608201524660808201523060a082015260a081528060c081011060018060401b0360c083011117620005395760c0818101604052815160208301206080523090526001600f556001600160a01b038216156200061c57506001600160a01b03851615620005d7576001600160a01b0384161562000592576107d06001600160601b038416116200054d576001600160a01b0316610160528051906001600160401b0382116200053957601254600181811c911680156200052e575b60208210146200051a57601f8111620004c4575b50602090601f831160011462000441579180620003819492620003889796945f9262000435575b50508160011b915f199060031b1c1916176012555b6001600160a01b03841660a09190911b6001600160a01b031916177fde1159fbbeca73b2aca5752c42b257ca18171ae3b3d3bbf22c7938e3a961a0cb557f1aa44fcb526383bd2f7c6231f8c09a41edc5b654966336907d6f785a5b3d288f80546001600160601b0319166103e81790556200037a81620007e7565b5062000857565b50620008f7565b50806200042b575b604051617a70908162000c7d823960805181616313015260a051816163ce015260c051816162dd015260e05181616362015261010051816163880152610120518161258a015261014051816125b60152610160518181816107ba01528181610eda015281816111df0152818161133d01528181611afb01528181612202015281816127b701528181612de9015281816130cc01526131f80152f35b6014555f62000390565b015190505f80620002ea565b60125f9081525f805160206200870d833981519152929190601f198516905b818110620004ab5750926001928592620003889998966200038198961062000492575b505050811b01601255620002ff565b01515f1960f88460031b161c191690555f808062000483565b9293602060018192878601518155019501930162000460565b60125f525f805160206200870d833981519152601f840160051c810191602085106200050f575b601f0160051c01905b818110620005035750620002c3565b5f8155600101620004f4565b9091508190620004eb565b634e487b7160e01b5f52602260045260245ffd5b90607f1690620002af565b634e487b7160e01b5f52604160045260245ffd5b60405162461bcd60e51b815260206004820152601c60248201527f506c6174666f726d20636f6d6d697373696f6e20746f6f2068696768000000006044820152606490fd5b60405162461bcd60e51b815260206004820152601560248201527f496e76616c69642061646d696e206164647265737300000000000000000000006044820152606490fd5b60405162461bcd60e51b815260206004820152601860248201527f496e76616c696420706c6174666f726d206164647265737300000000000000006044820152606490fd5b60c060649162461bcd60e51b82820152602060c4820152601d60e48201527f496e76616c6964207061796d656e7420746f6b656e206164647265737300000061010482015201fd5b90508501515f62000176565b60035f90815292507fc2575a0e9e593c00f959f8c92f12db2869c3395a3b0502d05e2516446f71f85b905b601f1983168410620006df576001935082601f19811610620006c6575b5050811b016003556200018a565b8701515f1960f88460031b161c191690555f80620006b8565b878101518255602093840193600190920191016200069b565b60035f527fc2575a0e9e593c00f959f8c92f12db2869c3395a3b0502d05e2516446f71f85b601f830160051c8101916020841062000755575b601f0160051c01905b8181106200074957506200015e565b5f81556001016200073a565b909150819062000731565b90607f16906200014a565b5f80fd5b604081019081106001600160401b038211176200053957604052565b601f909101601f19168101906001600160401b038211908210176200053957604052565b51906001600160a01b03821682036200076b57565b5f5b838110620007d65750505f910152565b8181015183820152602001620007c6565b6001600160a01b03165f8181525f805160206200872d833981519152602052604090205460ff1662000852575f8181525f805160206200872d83398151915260205260408120805460ff191660011790553391905f80516020620086ed8339815191528180a4600190565b505f90565b6001600160a01b03165f8181527fd329ff8a035c3ce5df2b0dae604d660c0d8783bf7e64be00c1d10db96c0b87b460205260409020547fb19546dff01e856fb3f010c267a7b1c60363cf8a4664e21cc89c26224620214e919060ff16620008f157815f525f60205260405f20815f5260205260405f20600160ff1982541617905533915f80516020620086ed8339815191525f80a4600190565b50505f90565b6001600160a01b03165f8181527e4137ac999875a62b0381e65f8832c0a903cf25418dd0c40107411aa55dc68760205260409020547f797343f8d6a29aafeb3aaf0910a8973e0081c60c2f6c1f775cd9f76ea348fc1e919060ff16620008f157815f525f60205260405f20815f5260205260405f20600160ff1982541617905533915f80516020620086ed8339815191525f80a4600190565b80516020908181101562000a0d5750601f825111620009cb5780825192015190808310620009bd57501790565b825f19910360031b1b161790565b604490620009ff9260405193849263305a27a960e01b845280600485015282519283918260248701528686019101620007c4565b601f01601f19168101030190fd5b906001600160401b0382116200053957600954926001938481811c9116801562000b23575b838210146200051a57601f811162000aec575b5081601f841160011462000a8457509282939183925f9462000a78575b50501b915f199060031b1c19161760095560ff90565b015192505f8062000a62565b919083601f19811660095f52845f20945f905b8883831062000ad1575050501062000ab8575b505050811b0160095560ff90565b01515f1960f88460031b161c191690555f808062000aaa565b85870151885590960195948501948793509081019062000a97565b60095f5284601f845f20920160051c820191601f860160051c015b82811062000b1757505062000a45565b5f815501859062000b07565b90607f169062000a32565b80516020908181101562000b5b5750601f825111620009cb5780825192015190808310620009bd57501790565b906001600160401b0382116200053957600a54926001938481811c9116801562000c71575b838210146200051a57601f811162000c3a575b5081601f841160011462000bd257509282939183925f9462000bc6575b50501b915f199060031b1c191617600a5560ff90565b015192505f8062000bb0565b919083601f198116600a5f52845f20945f905b8883831062000c1f575050501062000c06575b505050811b01600a5560ff90565b01515f1960f88460031b161c191690555f808062000bf8565b85870151885590960195948501948793509081019062000be5565b600a5f5284601f845f20920160051c820191601f860160051c015b82811062000c6557505062000b93565b5f815501859062000c55565b90607f169062000b8056fe60806040526004361015610011575f80fd5b5f3560e01c8062fdd58e146104c457806301ffc9a7146104bf57806305139a73146104ba578063087930ba146104b55780630a0a3515146104b05780630daf4c97146104ab5780630e89341c146104a657806310c551c5146104a1578063162094c41461049c57806318160ddd146104975780631eae6ed714610492578063248a9ca31461048d57806327dc3fbd146104885780632a55205a146104835780632ab4d0521461047e5780632eb2c2d6146104795780632f2ff15d146104745780633013ce29146103f2578063314cfd331461046f57806335e4d0a91461046a57806336568abe146104655780633f4ba83a14610460578063463dace01461045b578063492ae5a3146104565780634e1273f4146104515780634f558e791461044c57806355f804b3146104475780635c975abb146104425780635e27a7751461043d5780635ee297f114610438578063602481b614610433578063673c60851461042e578063694e91b8146103d95780636c8b703f1461042957806370824c5c1461042457806370f238d61461041f57806373997afa1461041a57806375794a3c1461040b5780637dcb76cd14610415578063814443381461041057806382e1350a1461040b57806383ca4b6f14610406578063844cdded146104015780638456cb59146103fc57806384b0196e146103f7578063877c86fb146103f25780638a71bb2d146103ed5780638e24242a146103e8578063906a8b2e146103e357806391d14854146103de57806392303e06146103d957806397491d6f146103d45780639f6d68b0146103cf578063a217fddf146103ca578063a22cb465146103c5578063a2c98a19146103c0578063aa15d40f146103bb578063b390c0ab146103b6578063b76c632b146103b1578063b97c9f77146103ac578063bd85b039146103a7578063c8a9aabc146103a2578063ce22958b1461039d578063d2d43dec14610398578063d547741f14610393578063dbe55e561461038e578063e58378bb14610389578063e5afe3e614610384578063e5f2e0cc1461037f578063e985e9c51461037a578063eabafe5d14610375578063ed26e34e14610370578063f242432a1461036b578063f249fd1614610366578063f7d97577146103615763f7ea7a3d1461035c575f80fd5b61375f565b6136fb565b613573565b613518565b6134ee565b613496565b61344b565b613355565b61332b565b613304565b6132d0565b613291565b613150565b613020565b612db9565b612d8f565b612d68565b612cef565b612c62565b612c3c565b612b40565b612a95565b612a71565b6129de565b6128dc565b611e61565b61289b565b612837565b612666565b612632565b6111ca565b612572565b6124f0565b6124af565b6123ad565b612226565b612392565b612243565b612110565b6120d3565b6120ac565b612071565b611d6b565b611ccd565b611a0f565b611994565b611972565b61182e565b611810565b61174a565b611668565b611613565b61151a565b6114cf565b611382565b61120e565b611178565b611061565b610fd5565b610fa9565b610f2a565b610efe565b610e9a565b610e7d565b610d44565b610cee565b610c94565b610c11565b610abf565b6109bd565b610671565b610539565b6104ea565b6001600160a01b031690565b6001600160a01b038116036104e657565b5f80fd5b346104e65760403660031901126104e657602061051e60043561050c816104d5565b6024355f526001835260405f206137a9565b54604051908152f35b6001600160e01b03198116036104e657565b346104e65760203660031901126104e657602060043561055881610527565b6001600160e01b0319811690636cdb3d1360e11b821480156105df575b80156105d0575b809281156105a9575b50508115610599575b506040519015158152f35b6105a391506148ab565b5f61058e565b91925063152a902d60e11b9091149081156105c8575b50905f80610585565b90505f6105bf565b506105da816148ab565b61057c565b506303a24d0760e21b8214610575565b9181601f840112156104e6578235916001600160401b0383116104e657602083818601950101116104e657565b9060c06003198301126104e657600435610635816104d5565b91602435916044359160643561064a816104d5565b916084359160a435906001600160401b0382116104e65761066d916004016105ef565b9091565b346104e65761074161072361075f5f8051602061793b8339815191526107396107316107f16107476106a23661061c565b9598859e95859e8b946106b99d969d9794976148d7565b6106c5814211156137d6565b8d6040519586946020860198899195949360a09360c08401977f3105aecddff330796121b6dc052eb4fc5e00b6c215525d2ff7be5dcaaee8a5108552600180871b038094166020860152604085015260608401521660808201520152565b03601f1981018352826108aa565b5190206148f5565b92369161100d565b9061491b565b6001600160a01b038085169690949185168714613816565b851515806107ff575b806107f6575b61077790613853565b6107958761078d836107888c611e8d565b6137a9565b541015613890565b6107e38789856107a482611e9b565b54946107b18615156138d9565b6107de818784867f00000000000000000000000000000000000000000000000000000000000000006149f4565b614bda565b60405193849316968361391b565b0390a4005b5086151561076e565b508383161515610768565b634e487b7160e01b5f52604160045260245ffd5b60a081019081106001600160401b0382111761083957604052565b61080a565b604081019081106001600160401b0382111761083957604052565b60e081019081106001600160401b0382111761083957604052565b602081019081106001600160401b0382111761083957604052565b60c081019081106001600160401b0382111761083957604052565b601f909101601f19168101906001600160401b0382119082101761083957604052565b604051906108da8261081e565b565b6001600160401b0381116108395760051b60200190565b9080601f830112156104e657602090823561090d816108dc565b9361091b60405195866108aa565b81855260208086019260051b8201019283116104e657602001905b828210610944575050505090565b8380918335610952816104d5565b815201910190610936565b9080601f830112156104e6576020908235610977816108dc565b9361098560405195866108aa565b81855260208086019260051b8201019283116104e657602001905b8282106109ae575050505090565b813581529083019083016109a0565b346104e65760803660031901126104e6576001600160401b036004358181116104e6576109ee9036906004016108f3565b906024358181116104e657610a0790369060040161095d565b916044358281116104e657610a2090369060040161095d565b606435938385116104e657366023860112156104e65784600401359384116104e6573660248560051b870101116104e6576024610a5e95019261392c565b005b9181601f840112156104e6578235916001600160401b0383116104e6576020808501948460061b0101116104e657565b9060406003198301126104e65760043591602435906001600160401b0382116104e65761066d91600401610a60565b346104e657610acd36610a90565b915f805160206178bb8339815191525f5260205f602052610afd60ff610af63360405f206137a9565b5416613fd6565b604051634f558e7960e01b815260048101839052602081602481305afa908115610c0c575f91610bdd575b5015610bcb575f80915b858310610b985750612710915003610b8657610b55610b5082611f53565b614e63565b5f5b838110610b6057005b600190610b80610b6f84611f53565b610b7a838888614dcd565b90614f58565b01610b57565b604051630569d67b60e21b8152600490fd5b90610bc2600191610bbc610bb785610bb1888c8c614dcd565b01614ddd565b6115ac565b90613e36565b92019190610b32565b60405163677510db60e11b8152600490fd5b610bff915060203d602011610c05575b610bf781836108aa565b810190614db8565b5f610b28565b503d610bed565b6143c6565b346104e65760203660031901126104e6576020610c44600435610c33816104d5565b610c3b6148d7565b600f5490615062565b6040519015158152f35b5f5b838110610c5f5750505f910152565b8181015183820152602001610c50565b90602091610c8881518092818552858086019101610c4e565b601f01601f1916010190565b346104e65760203660031901126104e657610cc7610cb36004356140a3565b604051918291602083526020830190610c6f565b0390f35b60609060031901126104e657600435610ce3816104d5565b906024359060443590565b346104e657610a5e610cff36610ccb565b9091610d096148d7565b610d1d6001600160a01b0382161515614144565b825f526001602052610d3d610d353360405f206137a9565b541515614190565b3392615221565b346104e65760403660031901126104e6576004356001600160401b036024358181116104e657610d789036906004016105ef565b905f805160206178bb8339815191525f526020935f602052610da260ff610af63360405f206137a9565b610db3610dae826143a6565b6141ce565b610dbe831515613dc7565b5f52601160205260405f2092821161083957610de482610dde8554611fa8565b85613eb3565b5f93601f8311600114610e165750610e07929382915f92610e0b575b5050613f02565b9055005b013590505f80610e00565b90601f19831694610e2a855f5260205f2090565b925f905b878210610e65575050836001959610610e4c575b505050811b019055005b01355f19600384901b60f8161c191690555f8080610e42565b80600184968294958701358155019501920190610e2e565b346104e6575f3660031901126104e6576020600554604051908152f35b346104e657610a5e610eab36610ccb565b610eb69291926148d7565b610ec2610dae846143a6565b610ed66001600160a01b0383161515614211565b33927f0000000000000000000000000000000000000000000000000000000000000000615318565b346104e65760203660031901126104e6576004355f525f6020526020600160405f200154604051908152f35b346104e65760203660031901126104e657610f436148d7565b60a0610f50600435615478565b600180831b03815116906020810151906040810151608060608301519201511515926040519485526020850152604084015260608301526080820152f35b6001600160a01b039091168152602081019190915260400190565b346104e65760403660031901126104e657610fc5600435614255565b90610cc760405192839283610f8e565b346104e6575f3660031901126104e6576020601454604051908152f35b6001600160401b03811161083957601f01601f191660200190565b92919261101982610ff2565b9161102760405193846108aa565b8294818452818301116104e6578281602093845f960137010152565b9080601f830112156104e65781602061105e9335910161100d565b90565b346104e65760a03660031901126104e6576004803561107f816104d5565b60243561108b816104d5565b6001600160401b03906044358281116104e6576110ab903690860161095d565b906064358381116104e6576110c3903690870161095d565b926084359081116104e6576110db9036908701611043565b936001600160a01b03808216903382141580611158575b61113957831615611122571561110c57610a5e9550616a3e565b604051626a0d4560e21b81525f81880152602490fd5b604051632bfa23e760e11b81525f81890152602490fd5b60405163711bec9160e11b8152806111548533838d016142df565b0390fd5b50815f52600260205260ff6111703360405f206137a9565b5416156110f2565b346104e65760403660031901126104e657610a5e60243560043561119b826104d5565b805f525f6020526111b2600160405f200154615660565b61576d565b6001600160a01b03909116815260200190565b346104e6575f3660031901126104e6576040517f00000000000000000000000000000000000000000000000000000000000000006001600160a01b03168152602090f35b346104e65760c03660031901126104e657600435606435602435604435611234836104d5565b60a43591608435906001600160401b0384116104e6576112f1610723610741611361946107398a8a6107318a61127c5f8051602061781b8339815191529d36906004016105ef565b9890966112876148d7565b611293814211156137d6565b6040519485938d602086019889919260a093969594919660c08401977f882b95b397f7417ab12583f56d97719be75ca77237ca12e355b64a2d195aeca38552602085015260408401526060830152600180841b031660808201520152565b6001600160a01b03808716969161130a91168714613816565b61131a610d35826107888a611e8d565b611326610dae886143a6565b80846113396113348a615478565b613c97565b93897f000000000000000000000000000000000000000000000000000000000000000061599a565b604061136c85615478565b015161137d6040519283928361391b565b0390a3005b346104e65760803660031901126104e6576004356024356113a2816104d5565b606435906044356001600160401b0383116104e65761144461073161074161147193610739886107236113dc61145c9a36906004016105ef565b9690946113e76148d7565b6113f3814211156137d6565b6040519283918c60208401968760609194939260808201957f727073de50e500e055a90b526b8011bbdd58ae1d883f7564c29f3550e4453e658352602083015260018060a01b031660408201520152565b6001600160a01b038084169490939184168514613816565b611468610dae866143a6565b61078885611e8d565b54158015906114ae575b611484906142f9565b61148d83615b65565b61149961133484615478565b16905f8051602061789b8339815191525f80a4005b50611484826114c76114c261133487615478565b6104c9565b14905061147b565b346104e65760403660031901126104e6576024356114ec816104d5565b336001600160a01b0382160361150857610a5e90600435615c2a565b60405163334bd91960e11b8152600490fd5b346104e6575f3660031901126104e6575f805160206178bb8339815191525f90815260205261155b60ff610af6335f8051602061783b8339815191526137a9565b60085460ff81161561159a5760ff19166008557f5db9ee0a495bf2e6ff9c91a7834c1ba4fdd244a5e8aa4e537bd38aeae4b073aa6020604051338152a1005b604051638dfc202b60e01b8152600490fd5b6001600160601b031690565b60208082019080835283518092528060408094019401925f905b8382106115e157505050505090565b845180516001600160a01b031687528301516001600160601b03168684015294850194938201936001909101906115d2565b346104e65760203660031901126104e657610cc7611632600435615c40565b604051918291826115b8565b60206003198201126104e657600435906001600160401b0382116104e65761066d91600401610a60565b346104e6576116763661163e565b905f805160206178bb8339815191525f5260205f60205261169f60ff610af63360405f206137a9565b5f80915b8483106116e45750612710915003610b86576116bd614de7565b5f5b8281106116c857005b806116de6116d96001938686614dcd565b614e93565b016116bf565b906116fd600191610bbc610bb785610bb1888b8b614dcd565b920191906116a3565b9081518082526020808093019301915f5b828110611725575050505090565b835185529381019392810192600101611717565b90602061105e928181520190611706565b346104e65760403660031901126104e6576001600160401b036004358181116104e65761177b9036906004016108f3565b906024359081116104e65761179490369060040161095d565b90805182518082036117f45750506117ac8151614374565b915f5b82518110156117e657806117d560019260051b60208082880101519186010151906137be565b6117df8287613c83565b52016117af565b60405180610cc78682611739565b611154604051928392635b05999160e01b84526004840161391b565b346104e65760203660031901126104e6576020610c446004356143a6565b346104e6576020806003193601126104e6576001600160401b036004358181116104e657366023820112156104e65761187190369060248160040135910161100d565b5f805160206178bb8339815191525f908152602052916118a360ff610af6335f8051602061783b8339815191526137a9565b8251918211610839576118c0826118bb601254611fa8565b613e63565b602090601f83116001146118f2575081906118e2935f926118e7575050613f02565b601255005b015190505f80610e00565b60125f52601f198316939091907fbb8a6a4669ba250d26cd7a459eca9d215f8307e33aebe50379bc5a3617ec3444925f905b86821061195a5750508360019510611942575b505050811b01601255005b01515f1960f88460031b161c191690555f8080611937565b80600185968294968601518155019501930190611924565b346104e6575f3660031901126104e657602060ff600854166040519015158152f35b346104e65760203660031901126104e657610cc76116326004356155b6565b9060a06003198301126104e6576004356119cc816104d5565b9160243591604435916001600160401b03916064358381116104e657826119f5916004016105ef565b939093926084359182116104e65761066d91600401610a60565b346104e657611a1d366119b3565b90611a2b96929593966148d7565b6001600160a01b0383811696909390611a45881515613ca4565b611a50861515613cef565b611a5b811515613dc7565b600f5498611a718a5f52601360205260405f2090565b5480611c9d575b50611aa1611aba93611a91611a8c8d613e43565b600f55565b888c611a9b613e51565b92614c7a565b87611aab8b611e9b565b55611ab58a611eb7565b613f14565b84611aeb575b505050611adb815f805160206179db83398151915293613fc3565b9061137d6040519283928361391b565b909193611af88482613fc3565b927f000000000000000000000000000000000000000000000000000000000000000086811693604051926370a0823160e01b8452602093848180611b3f33600483016111b7565b03818a5afa908115610c0c57611b609189915f91611c80575b5010156143d1565b836040518097636eb1769f60e11b82528180611b803033600484016142df565b03915afa8015610c0c575f805160206179db8339815191529988611bbb611adb9a611bec948d9b611bfc9a5f92611c53575b50501015614428565b611bc781303389615cde565b5f8051602061791b83398151915254918260a01c925f9380611c1f575b50505061448e565b918b82611c02575b915050615d5a565b93611ac0565b611c1792611c0f30614da6565b939092614f92565b5f808b611bf4565b611c3891929450611c309084613fc3565b612710900490565b80938115611be457611c4b921688615d25565b5f8281611be4565b611c729250803d10611c79575b611c6a81836108aa565b8101906143b7565b5f80611bb2565b503d611c60565b611c979150873d8911611c7957611c6a81836108aa565b5f611b58565b611cb088611caa8d611ea9565b54613e36565b11611cbb575f611a78565b604051631c07ee3d60e01b8152600490fd5b346104e657611cdb3661163e565b905f805160206178bb8339815191525f5260205f602052611d0460ff610af63360405f206137a9565b5f80915b848310611d495750612710915003610b8657611d22614e25565b5f5b828110611d2d57005b80611d43611d3e6001938686614dcd565b614f10565b01611d24565b90611d62600191610bbc610bb785610bb1888b8b614dcd565b92019190611d08565b346104e657610a5e611e22610723610731611e13611e5c610739611e19611d913661061c565b959a85859d8d94611da99d989d9b969b9794976148d7565b611db5814211156137d6565b8b6040519586946020860198899195949360a09360c08401977f370050074e984408e8fcb4eebcbe36098ebb5d61ac127819b9dcae70c43b1d4d8552600180871b038094166020860152604085015260608401521660808201520152565b906163f4565b9097919761644c565b6001600160a01b0390611e5390610d3590611e4289851682861614613816565b855f52600160205260405f206137a9565b83161515614144565b615221565b346104e6575f3660031901126104e65760205f8051602061791b8339815191525460a01c604051908152f35b5f52600160205260405f2090565b5f52601060205260405f2090565b5f52601560205260405f2090565b5f52601160205260405f2090565b5f525f8051602061787b83398151915260205260405f2090565b5f525f8051602061795b83398151915260205260405f2090565b5f527f6b770677edae0e90cca492948fa872f24dbe9c82ebeb8d39118b033a5e1bd3e160205260405f2090565b5f527f6b770677edae0e90cca492948fa872f24dbe9c82ebeb8d39118b033a5e1bd3e060205260405f2090565b5f525f805160206178db83398151915260205260405f2090565b5f527f6b770677edae0e90cca492948fa872f24dbe9c82ebeb8d39118b033a5e1bd3df60205260405f2090565b5f52600460205260405f2090565b90600182811c92168015611fd6575b6020831014611fc257565b634e487b7160e01b5f52602260045260245ffd5b91607f1691611fb7565b80545f9392611fee82611fa8565b918282526020936001916001811690815f146120525750600114612014575b5050505050565b90939495505f92919252835f2092845f945b83861061203e57505050500101905f8080808061200d565b805485870183015294019385908201612026565b60ff19168685015250505090151560051b010191505f8080808061200d565b346104e65760203660031901126104e6576004355f526011602052610cc76120a5610cb360405f2060405192838092611fe0565b03826108aa565b346104e6575f3660031901126104e65760206040515f8051602061785b8339815191528152f35b346104e65760403660031901126104e6576120ef6004356155b6565b51151580612105575b6020906040519015158152f35b5060243515156120f8565b346104e65760c03660031901126104e657600435604435602435612133826104d5565b60643590612140826104d5565b6084359360a4356001600160401b0381116104e657610a5e956121eb6107416121706121f49436906004016105ef565b919061217a6148d7565b612186854211156137d6565b61073960405160208101907fb3e02c83e4c0ad84ebbb8ab453028f1c77cc54db5f0aec413e22100747e320ab82528960408201528a606082015260018060a01b03809d16978860808301528d8d1660a083015260c082015260c0815261073181610859565b95861614613816565b612200610dae826143a6565b7f0000000000000000000000000000000000000000000000000000000000000000615318565b346104e6575f3660031901126104e6576020600f54604051908152f35b346104e65760a03660031901126104e657604435602435600435612266836104d5565b606435926084356001600160401b0381116104e657610723610741610a5e9661073986866107318a61229f61230c9936906004016105ef565b9890966122aa6148d7565b6122b6814211156137d6565b6040519485936020850197889094939260809260a08301967f5cb80df9fc3ba83fac76b542fbf752d606585fd01e103126503743288c71231384526020840152604083015260018060a01b031660608201520152565b6001600160a01b038281169161232491168214613816565b83151580612376575b6123369061449b565b61233f83616bff565b61234a575b50615dd2565b6123709061236a6114c261235d86611ec5565b546001600160a01b031690565b146144de565b5f612344565b50612336846123888461078887611e8d565b541015905061232d565b346104e65760203660031901126104e65760206040515f8152f35b346104e65760403660031901126104e6576001600160401b036004358181116104e6576123de90369060040161095d565b906024359081116104e6576123f790369060040161095d565b6123ff6148d7565b81518151036124715761241482511515614525565b5f5b8251811015612466578061243761242f60019385613c83565b511515613cef565b61246061244e6124478387613c83565b51336137be565b6124588386613c83565b511115613890565b01612416565b50610a5e9133615e03565b60405162461bcd60e51b8152602060048201526016602482015275082e4e4c2f2e640d8cadccee8d040dad2e6dac2e8c6d60531b6044820152606490fd5b346104e6576124bd366119b3565b906124cb96929593966148d7565b6124d6841515613cef565b6001600160a01b0383811696909390611a50881515613ca4565b346104e6575f3660031901126104e6575f805160206178bb8339815191525f90815260205261253160ff610af6335f8051602061783b8339815191526137a9565b6125396148d7565b600160ff1960085416176008557f62e78cea01bee320cd4e420270b5ea74000d11b0c9f74754ebdbfc544b05a2586020604051338152a1005b346104e6575f3660031901126104e6576126046125ae7f0000000000000000000000000000000000000000000000000000000000000000616c33565b610cc76125da7f0000000000000000000000000000000000000000000000000000000000000000616d0c565b6126126125e5614344565b91604051958695600f60f81b875260e0602088015260e0870190610c6f565b908582036040870152610c6f565b904660608501523060808501525f60a085015283820360c0850152611706565b346104e6575f3660031901126104e6575f805160206178fb833981519152546040516001600160601b039091168152602090f35b346104e65760e03660031901126104e65760043560643560243560443561268c836104d5565b60843592612699846104d5565b60c4359360a4356001600160401b0386116104e6578287928561274d610723610741859661073989866127649f8f6126d86107319236906004016105ef565b9890966126e36148d7565b6126ef814211156137d6565b8d604051958694602086019889919260a093969594919660c08401977f6f38208320ea86a7eb3272aaa904946d737a47d2b127e072f5da4f3e582d181c8552602085015260408401526060830152600180841b031660808201520152565b6001600160a01b038481169a909182168b14613816565b61276d866143a6565b8061282e575b80612823575b61278290613853565b8216976127918a8a141561456a565b8261279b87611e8d565b906127a5916137a9565b5415156127b1906145c0565b6127db957f0000000000000000000000000000000000000000000000000000000000000000615f6e565b6127e49061569e565b506127ee84615478565b602001516127fb85615478565b60400151906040519283926128109284614618565b035f80516020617a1b83398151915291a4005b508281161515612779565b50891515612773565b346104e65760203660031901126104e65760405162461bcd60e51b815260206004820152602560248201527f746f6b656e4279496e646578206e6f7420737570706f7274656420696e204552604482015264433131353560d81b6064820152608490fd5b346104e65760403660031901126104e657602060ff6128d06024356128bf816104d5565b6004355f525f845260405f206137a9565b54166040519015158152f35b346104e65760203660031901126104e6576004356128f86148d7565b612904610dae826143a6565b805f5260016020526129193360405f206137a9565b54158015906129b2575b1561295a5761293181615b65565b6001600160a01b0361294561133483615478565b16335f8051602061789b8339815191525f80a4005b60405162461bcd60e51b815260206004820152602a60248201527f4d757374206f776e20746f6b656e73206f722062652072656e74657220746f20604482015269195b99081c995b9d185b60b21b6064820152608490fd5b50336001600160a01b036129c583615478565b511614612923565b6001600160601b038116036104e657565b346104e65760203660031901126104e6576004356129fb816129cd565b5f805160206178bb8339815191525f908152602052612a2c60ff610af6335f8051602061783b8339815191526137a9565b6001600160601b03166127108111612a5f575f805160206178fb83398151915280546001600160601b0319169091179055005b60405163c2a2a95d60e01b8152600490fd5b346104e6575f3660031901126104e65760206040515f8152f35b801515036104e657565b346104e65760403660031901126104e657600435612ab2816104d5565b602435612abe81612a8b565b6001600160a01b038216918215612b295781612ae8612af992335f52600260205260405f206137a9565b9060ff801983541691151516179055565b60405190151581527f17307eab39ab6107e8899845ad3d59bd9653f200f220920489ca2b5937696c3160203392a3005b60405162ced3e160e81b81525f6004820152602490fd5b346104e65760803660031901126104e6576004356001600160401b036024358181116104e657612b749036906004016105ef565b91604435936064359182116104e657612c20612c1982612c148661074189610739610a5e9c612bc3612bad611ab59c36906004016105ef565b969094612bbc844211156137d6565b369161100d565b60208151910120906040519060208201927facd6ea54cadff9a0651f57516c60021d134e0eacb603dfe301c9aa9de3c39b3e845289604084015260608301526080820152608081526107318161081e565b6137be565b1515614190565b612c2c610dae826143a6565b612c37841515613dc7565b611eb7565b346104e65760203660031901126104e657612c556148d7565b6020610c44600435616bff565b346104e65760403660031901126104e657610a5e602435600435612c846148d7565b612c8f821515613cef565b805f526001602052612ca88261078d3360405f206137a9565b612cb181616bff565b612cbc575b33615dd2565b5f8181525f8051602061787b8339815191526020526040902054612cea906001600160a01b031633146144de565b612cb6565b346104e6576020806003193601126104e657612d0c60043561462e565b604092919251928391604083016040845282518091526020606085019301945f5b828110612d48578580610cc787878382036020850152611706565b86516001600160a01b031685529581019587955093810193600101612d2d565b346104e6575f3660031901126104e65760206040515f8051602061799b8339815191528152f35b346104e65760203660031901126104e6576004355f526013602052602060405f2054604051908152f35b346104e65760603660031901126104e657600435604435602435612ddb6148d7565b612de7610dae846143a6565b7f0000000000000000000000000000000000000000000000000000000000000000612e13331515615783565b612e1e821515615853565b612e298315156158b2565b612e47612e426004612e3a87611ec5565b015460ff1690565b615910565b612ea46001600160a01b03612e6a3382612e6361235d8a611ec5565b1614615952565b612e7685303386615cde565b5f8051602061791b833981519152548060a01c915f9280613009575b50829081612ff6575b5050508461448e565b5f805160206178fb83398151915254612ed390611c3090612ecd906001600160601b03166115ac565b83613fc3565b9081612f5d575b90612ee49161448e565b80612f4b575b5050612f036002612efa85611ec5565b01918254613e36565b90556003612f1083611ec5565b01612f1c828254613e36565b90555f8051602061781b83398151915261137d6040612f3a85615478565b01519260405191829133958361391b565b612f56913390615d25565b5f80612eea565b612f6686615c40565b8051612f73575b50612eda565b935f9692969591955b8551811015612fe55780612fb5611c30612faf610bb76020612fa06001978d613c83565b5101516001600160601b031690565b8b613fc3565b80612fc2575b5001612f7c565b612fdf90612fd9612fd3848b613c83565b51613c97565b88615d25565b5f612fbb565b5093509394612ee491959091612f6d565b613001921685615d25565b5f8181612e9b565b613019919350611c309088613fc3565b915f612e92565b346104e65760803660031901126104e65760043561303d816104d5565b602435906044359060643590613052826104d5565b61305a6148d7565b6001600160a01b0381811693909190841561310d576130fe5f8051602061793b8339815191529385169461308f861515614711565b61309a831515613cef565b6130ab8361078d836107888c611e8d565b82886130b681611e9b565b54956130c38715156138d9565b6130f0848883857f00000000000000000000000000000000000000000000000000000000000000006149f4565b6130f8613e51565b936147b4565b6107f16040519283928361391b565b60405162461bcd60e51b815260206004820152601b60248201527a43616e6e6f742073656c6c20746f207a65726f206164647265737360281b6044820152606490fd5b346104e65760a03660031901126104e657600435604435606435613173816104d5565b60843590613180826104d5565b6131886148d7565b613194610dae856143a6565b6001600160a01b038181169390841561324c575f80516020617a1b8339815191529261321c613221928616956131cb87151561475d565b6131d78888141561456a565b6131ef6131e7826107888c611e8d565b5415156145c0565b3390856024358b7f000000000000000000000000000000000000000000000000000000000000000061616b565b61569e565b50602061322d86615478565b01516107f1604061323d88615478565b01519260405193849384614618565b60405162461bcd60e51b815260206004820152601d60248201527f52656e7465722063616e6e6f74206265207a65726f20616464726573730000006044820152606490fd5b346104e65760403660031901126104e657610a5e6024356004356132b4826104d5565b805f525f6020526132cb600160405f200154615660565b615c2a565b346104e6575f3660031901126104e6575f8051602061791b833981519152546040516001600160a01b039091168152602090f35b346104e6575f3660031901126104e65760206040515f805160206178bb8339815191528152f35b346104e65760203660031901126104e6576004355f526010602052602060405f2054604051908152f35b346104e65761336336610a90565b915f805160206178bb8339815191525f5260205f60205261338c60ff610af63360405f206137a9565b602061339730614da6565b60405160e09190911b8152600481018590529190829060249082905afa908115610c0c575f9161342c575b5015610bcb575f80915b85831061340a5750612710915003610b86576133ea610b5082611edf565b5f5b8381106133f557005b600190613404610b6f84611edf565b016133ec565b90613423600191610bbc610bb785610bb1888c8c614dcd565b920191906133cc565b613445915060203d602011610c0557610bf781836108aa565b5f6133c2565b346104e65760403660031901126104e657602060ff6128d060043561346f816104d5565b6024359061347c826104d5565b6001600160a01b03165f90815260028552604090206137a9565b346104e65760403660031901126104e6575f805160206178bb8339815191525f9081526020526134d860ff610af6335f8051602061783b8339815191526137a9565b6004355f52601360205260243560405f20555f80f35b346104e65760203660031901126104e6576004355f526015602052602060405f2054604051908152f35b346104e65760a03660031901126104e657600435613535816104d5565b60243590613542826104d5565b608435916001600160401b0383116104e657613565610a5e933690600401611043565b9160643591604435916147b4565b346104e65760403660031901126104e657600435613590816129cd565b60243561359c816104d5565b5f805160206178bb8339815191525f9081526020526135cd60ff610af6335f8051602061783b8339815191526137a9565b6001600160a01b03818116801515939091613601906135eb8661485f565b5f8051602061791b83398151915254169461485f565b6107d06001600160601b038216116136a85761364b9061362230151561628e565b60a01b6001600160a01b0319166001600160a01b038416175f8051602061791b83398151915255565b820361365357005b5f8051602061785b8339815191525f908152602052610a5e9161368d613686825f805160206179bb8339815191526137a9565b5460ff1690565b613698575b5061573f565b6136a190615ba4565b505f613692565b60405162461bcd60e51b815260206004820152602560248201527f506c6174666f726d20636f6d6d697373696f6e2063616e6e6f74206578636565604482015264642032302560d81b6064820152608490fd5b346104e65760403660031901126104e6575f805160206178bb8339815191525f90815260205260043561374060ff610af6335f8051602061783b8339815191526137a9565b61374c610dae826143a6565b5f52601060205260243560405f20555f80f35b346104e65760203660031901126104e6575f805160206178bb8339815191525f9081526020526137a160ff610af6335f8051602061783b8339815191526137a9565b600435601455005b9060018060a01b03165f5260205260405f2090565b6137d2915f52600160205260405f206137a9565b5490565b156137dd57565b60405162461bcd60e51b815260206004820152601160248201527014da59db985d1d5c9948195e1c1a5c9959607a1b6044820152606490fd5b1561381d57565b60405162461bcd60e51b815260206004820152600e60248201526d24b73b30b634b21039b4b3b732b960911b6044820152606490fd5b1561385a57565b60405162461bcd60e51b815260206004820152600e60248201526d496e76616c696420706172616d7360901b6044820152606490fd5b1561389757565b60405162461bcd60e51b815260206004820152601a602482015279496e73756666696369656e7420746f6b656e2062616c616e636560301b6044820152606490fd5b156138e057565b60405162461bcd60e51b8152602060048201526013602482015272151bdad95b881c1c9a58d9481b9bdd081cd95d606a1b6044820152606490fd5b908152602081019190915260400190565b949392946139386148d7565b61394481511515613adf565b6139518151835114613b2a565b61395e8251845114613b92565b61396a84835114613bf6565b5f5b8251811015613ad65761398f6139886114c26113348486613c83565b1515613ca4565b61399c61242f8285613c83565b6139b16139a98286613c83565b511515613d3b565b6139c86139bf82878a613d86565b90501515613dc7565b600f54906139de825f52601360205260405f2090565b5480613aad575b50816139f5611a8c600194613e43565b613a19613a056113348487613c83565b613a0f8488613c83565b5183611a9b613e51565b613a238287613c83565b51613a2d82611e9b565b55613a46613a3c83898c613d86565b90611ab584611eb7565b613a536113348386613c83565b5f805160206179db833981519152613a6b8488613c83565b5191613a8c613a7a868b613c83565b51613a85878b613c83565b5190613fc3565b90613aa4604051928392898060a01b0316958361391b565b0390a30161396c565b613acb613ab984611ea9565b54613ac48488613c83565b5190613e36565b11611cbb575f6139e5565b50505050509050565b15613ae657565b606460405162461bcd60e51b815260206004820152602060248201527f526563697069656e74732061727261792063616e6e6f7420626520656d7074796044820152fd5b15613b3157565b60405162461bcd60e51b815260206004820152603360248201527f526563697069656e747320616e6420616d6f756e747320617272617973206d756044820152720e6e840d0c2ecca40e6c2daca40d8cadccee8d606b1b6064820152608490fd5b15613b9957565b60405162461bcd60e51b815260206004820152602f60248201527f416d6f756e747320616e642070726963657320617272617973206d757374206860448201526e0c2ecca40e6c2daca40d8cadccee8d608b1b6064820152608490fd5b15613bfd57565b60405162461bcd60e51b815260206004820152603260248201527f416d6f756e747320616e6420746f6b656e5552497320617272617973206d75736044820152710e840d0c2ecca40e6c2daca40d8cadccee8d60731b6064820152608490fd5b634e487b7160e01b5f52603260045260245ffd5b805115613c7e5760200190565b613c5d565b8051821015613c7e5760209160051b010190565b516001600160a01b031690565b15613cab57565b606460405162461bcd60e51b815260206004820152602060248201527f526563697069656e742063616e6e6f74206265207a65726f20616464726573736044820152fd5b15613cf657565b60405162461bcd60e51b815260206004820152601d60248201527f416d6f756e74206d7573742062652067726561746572207468616e20300000006044820152606490fd5b15613d4257565b60405162461bcd60e51b815260206004820152601c60248201527b05072696365206d7573742062652067726561746572207468616e20360241b6044820152606490fd5b9190811015613c7e5760051b81013590601e19813603018212156104e65701803591906001600160401b0383116104e65760200182360381136104e6579190565b15613dce57565b60405162461bcd60e51b8152602060048201526019602482015278546f6b656e205552492063616e6e6f7420626520656d70747960381b6044820152606490fd5b634e487b7160e01b5f52601160045260245ffd5b6030019081603011613e3157565b613e0f565b91908201809211613e3157565b5f198114613e315760010190565b60405190613e5e82610874565b5f8252565b601f8111613e6f575050565b60125f5260205f20906020601f840160051c83019310613ea9575b601f0160051c01905b818110613e9e575050565b5f8155600101613e93565b9091508190613e8a565b601f8211613ec057505050565b5f5260205f20906020601f840160051c83019310613ef8575b601f0160051c01905b818110613eed575050565b5f8155600101613ee2565b9091508190613ed9565b8160011b915f199060031b1c19161790565b9092916001600160401b03811161083957613f3981613f338454611fa8565b84613eb3565b5f601f8211600114613f5e578190613f5a9394955f92610e0b575050613f02565b9055565b601f19821694613f71845f5260205f2090565b915f5b878110613fab575083600195969710613f92575b505050811b019055565b01355f19600384901b60f8161c191690555f8080613f88565b90926020600181928686013581550194019101613f74565b81810292918115918404141715613e3157565b15613fdd57565b60405162461bcd60e51b815260206004820152601660248201527521b0b63632b91034b9903737ba1030b71037bbb732b960511b6044820152606490fd5b6012545f929161402a82611fa8565b91600190818116908115614079575060011461404557505050565b909192935060125f5260209060205f20905f915b85831061406857505050500190565b805485840152918301918101614059565b60ff191683525050811515909102019150565b9061409f60209282815194859201610c4e565b0190565b6140ac816143a6565b156140ff576120a56140cc6140c083611eb7565b60405192838092611fe0565b80516140fa575061105e6140e261072392615109565b6040519283916140f46020840161401b565b9061408c565b905090565b60405162461bcd60e51b815260206004820152601f60248201527f55524920717565727920666f72206e6f6e6578697374656e7420746f6b656e006044820152606490fd5b1561414b57565b60405162461bcd60e51b815260206004820152601f60248201527f43616e6e6f74207472616e7366657220746f207a65726f2061646472657373006044820152606490fd5b1561419757565b60405162461bcd60e51b815260206004820152600f60248201526e2737ba103a37b5b2b71037bbb732b960891b6044820152606490fd5b156141d557565b60405162461bcd60e51b8152602060048201526014602482015273151bdad95b88191bd95cc81b9bdd08195e1a5cdd60621b6044820152606490fd5b1561421857565b60405162461bcd60e51b815260206004820152601560248201527453656c6c65722063616e6e6f74206265207a65726f60581b6044820152606490fd5b90815f52601060205260405f20549182156142d7576127109061429b8261429460018060601b0396875f805160206178fb833981519152541690613fc3565b04916155b6565b80516142ac5750505090505f905f90565b906142b96142c792613c71565b519460208601511690613fc3565b92516001600160a01b0316920490565b505f91508190565b6001600160a01b0391821681529116602082015260400190565b1561430057565b60405162461bcd60e51b815260206004820152601c60248201527b26bab9ba1037bbb7103a37b5b2b7399037b9103132903932b73a32b960211b6044820152606490fd5b60405161435081610874565b5f8152905f368137565b604051906143678261083e565b6001825260203681840137565b9061437e826108dc565b61438b60405191826108aa565b828152809261439c601f19916108dc565b0190602036910137565b5f52601560205260405f2054151590565b908160209103126104e6575190565b6040513d5f823e3d90fd5b156143d857565b60405162461bcd60e51b815260206004820152602260248201527f496e73756666696369656e74207061796d656e7420746f6b656e2062616c616e604482015261636560f01b6064820152608490fd5b1561442f57565b60405162461bcd60e51b8152602060048201526024808201527f496e73756666696369656e74207061796d656e7420746f6b656e20616c6c6f77604482015263616e636560e01b6064820152608490fd5b5f19810191908211613e3157565b91908203918211613e3157565b156144a257565b60405162461bcd60e51b8152602060048201526014602482015273496e73756666696369656e742062616c616e636560601b6044820152606490fd5b156144e557565b60405162461bcd60e51b815260206004820152601860248201527721b0b73737ba10313ab937103932b73a32b2103a37b5b2b760411b6044820152606490fd5b1561452c57565b60405162461bcd60e51b81526020600482015260166024820152754172726179732063616e6e6f7420626520656d70747960501b6044820152606490fd5b1561457157565b60405162461bcd60e51b815260206004820152602160248201527f4f776e65722063616e6e6f742072656e74207468656972206f776e20746f6b656044820152603760f91b6064820152608490fd5b156145c757565b60405162461bcd60e51b815260206004820152602360248201527f546f6b656e206f776e657220646f6573206e6f7420686176652074686520746f60448201526235b2b760e91b6064820152608490fd5b6040919493926060820195825260208201520152565b9061463882611e9b565b5480156146fd5761466e611c306146749261466860018060601b035f805160206178fb83398151915254166115ac565b90613fc3565b926155b6565b8051156146fd576146858151614374565b926146908251614374565b915f5b81518110156146f757806146c86146af612fd360019486613c83565b6146b9838a613c83565b6001600160a01b039091169052565b6146e6611c306146e0610bb76020612fa08689613c83565b86613fc3565b6146f08287613c83565b5201614693565b50505090565b509050614708614344565b9061105e614344565b1561471857565b60405162461bcd60e51b815260206004820152601d60248201527f53656c6c65722063616e6e6f74206265207a65726f20616464726573730000006044820152606490fd5b1561476457565b60405162461bcd60e51b815260206004820152602260248201527f546f6b656e206f776e65722063616e6e6f74206265207a65726f206164647265604482015261737360f01b6064820152608490fd5b92939290916001600160a01b0380831690338214158061483f575b6148235784161561480b57156147f4576108da946147ec91616a19565b929091616a3e565b604051626a0d4560e21b81525f6004820152602490fd5b604051632bfa23e760e11b81525f6004820152602490fd5b60405163711bec9160e11b8152806111548633600484016142df565b50815f52600260205260ff6148573360405f206137a9565b5416156147cf565b1561486657565b60405162461bcd60e51b815260206004820152601f60248201527f506c6174666f726d20616464726573732063616e6e6f74206265207a65726f006044820152606490fd5b63ffffffff60e01b16637965db0b60e01b81149081156148c9575090565b6301ffc9a760e01b14919050565b60ff600854166148e357565b60405163d93c066560e01b8152600490fd5b6042906149006162da565b906040519161190160f01b8352600283015260228201522090565b61105e91614928916163f4565b9092919261644c565b1561493857565b60405162461bcd60e51b815260206004820152601460248201527342757965722063616e6e6f74206265207a65726f60601b6044820152606490fd5b1561497b57565b60405162461bcd60e51b815260206004820152602160248201527f53616c65207072696365206d7573742062652067726561746572207468616e206044820152600360fc1b6064820152608490fd5b9081526001600160601b0319606092831b811660208301529290911b909116603482015260480190565b929390926001600160a01b03614a0d8482161515614931565b614a1a8184161515614211565b614a25861515614974565b5f8051602061791b833981519152805460a01c5f9080614b94575b50614a4d88308887615cde565b614a57818961448e565b9281614b80575b50505f805160206178fb83398151915254614a8a9150611c3090612ecd906001600160601b03166115ac565b9081614af8575b91614aa5614ae496959492614ac39461448e565b8281614ae7575b5050506107236040519384926020840196876149ca565b519020614adf614ad282611ef9565b805460ff19166001179055565b611f26565b55565b614af092615d25565b5f8082614aac565b614b01866155b6565b8051614b0e575b50614a91565b959197935f97939591975b8751811015614b6d5780614b43611c30614b3d610bb76020612fa06001978f613c83565b8d613fc3565b80614b50575b5001614b19565b614b6790614b61612fd3848d613c83565b8a615d25565b5f614b49565b5093979296919550939190614aa5614b08565b614b8c92541684615d25565b5f8080614a5e565b614ba39150611c309089613fc3565b5f614a40565b601680546001600160a01b0319169055565b80546001600160a01b0319166001600160a01b03909216919091179055565b91929092805f526001602052614bf78261078d8560405f206137a9565b601680546001600160a01b0319166001600160a01b0385811691909117909155614c1f61435a565b614c2761435a565b815115613c7e5781846020614c4a94015285614c4283613c71565b52878761671b565b8416614c57575b50505050565b614c719360405193614c6885610874565b5f855233616980565b5f808080614c51565b6001600160a01b0381169392909190841561480b57614c9891616a19565b9093614ca58286856164d9565b8451600103614cc257506020806108da9501519101519133616927565b919392843b614cd2575050505050565b614cf9926020925f60405180968195829463bc197c8160e01b9a8b855233600486016173c5565b03925af15f9181614d75575b50614d3e5782614d136168f8565b8051919082614d3757604051632bfa23e760e11b81528061115484600483016111b7565b6020915001fd5b6001600160e01b03191603614d5857505f8080808061200d565b604051632bfa23e760e11b815290819061115490600483016111b7565b614d9891925060203d602011614d9f575b614d9081836108aa565b810190616880565b905f614d05565b503d614d86565b6001600160a01b031690634f558e7990565b908160209103126104e6575161105e81612a8b565b9190811015613c7e5760061b0190565b3561105e816129cd565b5f805160206179fb8339815191528054905f815581614e04575050565b5f5260205f20908101905b818110614e1a575050565b5f8155600101614e0f565b5f8051602061797b8339815191528054905f815581614e42575050565b5f5260205f20908101905b818110614e58575050565b5f8155600101614e4d565b8054905f815581614e72575050565b5f5260205f20908101905b818110614e88575050565b5f8155600101614e7d565b5f805160206179fb83398151915280549190600160401b8310156108395760018301808255831015613c7e576108da926020915f52815f200191614ee18135614edb816104d5565b84614bbb565b013590614eed826129cd565b80546001600160a01b031660a09290921b6001600160a01b031916919091179055565b5f8051602061797b83398151915280549190600160401b8310156108395760018301808255831015613c7e576108da926020915f52815f200191614ee18135614edb816104d5565b80549190600160401b8310156108395760018301808255831015613c7e576108da926020915f52815f200191614ee18135614edb816104d5565b939290926040519060e01b815260208181938180614fb88a600483019190602083019252565b03915afa908115610c0c575f91615043575b5015610bcb575f80915b8383106150215750612710915003610b8657614ff2610b5084611f53565b5f5b8181106150015750505050565b60019061501b61501086611f53565b610b7a838688614dcd565b01614ff4565b9061503a600191610bbc610bb785610bb1888a8c614dcd565b92019190614fd4565b61505c915060203d602011610c0557610bf781836108aa565b5f614fca565b60019060015b8381111561507857505050505f90565b805f525f8051602061787b83398151915260205260405f2060ff60048201541690816150b9575b506150b2576150ad90613e43565b615068565b5050905090565b546001600160a01b0384811691161490505f61509f565b906150da82610ff2565b6150e760405191826108aa565b828152809261439c601f1991610ff2565b908151811015613c7e570160200190565b801561518e57805f81805b6151765750615122816150d0565b925b61512d57505090565b61513690614480565b90600a9061516161515161514b848406613e23565b60ff1690565b60f81b6001600160f81b03191690565b5f1a61516d84866150f8565b53049081615124565b9150615183600a91613e43565b910480839291615114565b5060405161519b8161083e565b60018152600360fc1b602082015290565b156151b357565b60405162461bcd60e51b8152602060048201526018602482015277526563697069656e742063616e6e6f74206265207a65726f60401b6044820152606490fd5b90815260609190911b6001600160601b03191660208201526034810191909152605481019190915260740190565b91926001600160a01b0392908316156152795761526a6107239161524b614ae495851615156151ac565b615256861515614974565b6040519283918760208401964292886151f3565b519020614adf614ad282611f6d565b60405162461bcd60e51b81526020600482015260146024820152734f776e65722063616e6e6f74206265207a65726f60601b6044820152606490fd5b156152bc57565b60405162461bcd60e51b815260206004820152602e60248201527f5472616e73666572206e6f7420696e69746961746564206f7220726f79616c7460448201526d1e48185b1c9958591e481c185a5960921b6064820152608490fd5b91939192906001600160a01b036153328184161515614211565b61533f8185161515614931565b61534a861515614974565b5f955f5b6103e88110615407575b50906153999161536d6153cf959697986152b5565b5f8051602061791b833981519152548060a01c925f93806153f0575b508390816153e45750505061448e565b6153ca85876153c3611c306146e060018060601b035f805160206178fb83398151915254166115ac565b8095616b24565b61448e565b91826153db5750505050565b614c7193615cde565b611c4b9216898b615cde565b615400919450611c309084613fc3565b925f615389565b615411814261448e565b604051615429816107236020820194878c8b886151f3565b51902061543861368682611f6d565b615445575060010161534e565b6153cf95969798506153999392915061546061546a91611f6d565b805460ff19169055565b600197969594509091615358565b5f60806040516154878161081e565b828152826020820152826040820152826060820152015260405190634f558e7960e01b8252806004830152602082602481305afa918215610c0c576154dc926154d7915f91615525575b506141ce565b611ec5565b60ff6004604051926154ed8461081e565b80546001600160a01b031684526001810154602085015260028101546040850152600381015460608501520154161515608082015290565b61553e915060203d602011610c0557610bf781836108aa565b5f6154d1565b908154615550816108dc565b9260409361556160405191826108aa565b82815280946020809201925f5260205f20905f935b85851061558557505050505050565b600184819284516155958161083e565b8654848060a01b038116825260a01c83820152815201930194019391615576565b5f5260205f8051602061795b83398151915260205260409060405f20805461565457505f8051602061797b8339815191528054916155f3836108dc565b9361560160405195866108aa565b83855260208501925f5260205f20905f935b8585106156235750505050505090565b600184819284516156338161083e565b8654848060a01b038116825260a01c83820152815201930194019391615613565b905061105e9150615544565b805f525f60205260ff6156763360405f206137a9565b5416156156805750565b6044906040519063e2517d3f60e01b82523360048301526024820152fd5b5f8051602061799b8339815191525f81815260205260ff6156df837f64d20ad6c082d9621149fdda479032d4fb46f976cd92c72281623a586193c3b86137a9565b541661573957805f525f6020526156f98260405f206137a9565b805460ff1916600117905533916001600160a01b0316907f2f8788117e7eff1d82e926ec794901d17c78024a50270940304540a733656f0d5f80a4600190565b50505f90565b5f8051602061785b8339815191525f81815260205260ff6156df835f805160206179bb8339815191526137a9565b805f525f60205260ff6156df8360405f206137a9565b1561578a57565b60405162461bcd60e51b815260206004820152601a602482015279546f6b656e206f776e65722063616e6e6f74206265207a65726f60301b6044820152606490fd5b156157d357565b60405162461bcd60e51b815260206004820152601460248201527350617965722063616e6e6f74206265207a65726f60601b6044820152606490fd5b1561581657565b60405162461bcd60e51b815260206004820152601560248201527452656e7465722063616e6e6f74206265207a65726f60581b6044820152606490fd5b1561585a57565b60405162461bcd60e51b815260206004820152602a60248201527f4164646974696f6e616c206475726174696f6e206d75737420626520677265616044820152690746572207468616e20360b41b6064820152608490fd5b156158b957565b60405162461bcd60e51b815260206004820152602960248201527f4164646974696f6e616c207061796d656e74206d75737420626520677265617460448201526806572207468616e20360bc1b6064820152608490fd5b1561591757565b60405162461bcd60e51b8152602060048201526013602482015272151bdad95b881a5cc81b9bdd081c995b9d1959606a1b6044820152606490fd5b1561595957565b60405162461bcd60e51b815260206004820152601960248201527821b0b63632b91036bab9ba103132903a3432903932b73a32b960391b6044820152606490fd5b9295615a1b878397615a13866159fe612e426004612e3a615a499a6159f38f9d9f6159d29c60018060a01b039d8e8093161515615783565b6159df828c1615156157cc565b16966159ec88151561580f565b1515615853565b6154d78915156158b2565b615a0d6114c261235d8d611ec5565b14615952565b309087615cde565b5f8051602061791b833981519152548060a01c915f9280615b4e575b50829081615b3b575b5050508661448e565b5f805160206178fb83398151915254615a7290611c3090612ecd906001600160601b03166115ac565b9081615abf575b92613f5a9592615a8f60039693612efa9661448e565b9081615aae575b505050615aa76002612efa84611ec5565b9055611ec5565b615ab792615d25565b5f8080615a96565b615ac886615c40565b8051615ad5575b50615a79565b95919793949096925f5b8751811015615b275780615b03611c30614b3d610bb76020612fa06001978f613c83565b80615b10575b5001615adf565b615b2190614b61612fd3848d613c83565b5f615b09565b509397929691955093929190613f5a615acf565b615b46921686615d25565b5f8181615a40565b615b5e919350611c30908a613fc3565b915f615a37565b805f525f8051602061787b8339815191529081602052615b8e60ff600460405f20015416615910565b5f52602052600460405f200160ff198154169055565b5f8051602061785b8339815191525f81815260205260ff615bd2835f805160206179bb8339815191526137a9565b54161561573957805f525f602052615bed8260405f206137a9565b805460ff1916905533916001600160a01b0316907ff6391f5c32d9c69d2a47ea670b442974b53935d1edc7fd64eb21e047a839171b5f80a4600190565b805f525f60205260ff615bd28360405f206137a9565b5f5260205f805160206178db83398151915260205260409060405f20805461565457505f805160206179fb833981519152805491615c7d836108dc565b93615c8b60405195866108aa565b83855260208501925f5260205f20905f935b858510615cad5750505050505090565b60018481928451615cbd8161083e565b8654848060a01b038116825260a01c83820152815201930194019391615c9d565b6040516323b872dd60e01b60208201526001600160a01b0392831660248201529290911660448301526064808301939093529181526108da91615d208261081e565b616ba5565b615d206108da9392615d4c60405194859263a9059cbb60e01b602085015260248401610f8e565b03601f1981018452836108aa565b615d679093929193615c40565b905f5b8251811015615dcb57600190612710615d9a6001600160601b036020615d908589613c83565b5101511688613fc3565b0480615da8575b5001615d6a565b615dc590838060a01b03615dbc8488613c83565b51511685615d25565b5f615da1565b5050509050565b906001600160a01b038216156147f4576108da92615def91616a19565b915f604051615dfd81610874565b526165a6565b91906001600160a01b038316156147f4576108da925f604051615dfd81610874565b15615e2c57565b60405162461bcd60e51b815260206004820152602660248201527f52656e74616c206475726174696f6e206d75737420626520677265617465722060448201526507468616e20360d41b6064820152608490fd5b15615e8757565b60405162461bcd60e51b815260206004820152602360248201527f52656e74616c207072696365206d75737420626520677265617465722074686160448201526206e20360ec1b6064820152608490fd5b15615edf57565b60405162461bcd60e51b8152602060048201526017602482015276151bdad95b881a5cc8185b1c9958591e481c995b9d1959604a1b6044820152606490fd5b600460806108da93615f3960018060a01b0382511685614bbb565b6020810151600185015560408101516002850155606081015160038501550151151591019060ff801983541691151516179055565b969594909390616016906001600160a01b0390615fe9908690615f948487161515615783565b615fa184821615156157cc565b615fae848b16151561580f565b615fb9871515615e25565b615fc4821515615e80565b615fe1615fdc615fd86004612e3a8d611ec5565b1590565b615ed8565b30908c615cde565b5f8051602061791b833981519152548060a01c915f9280616154575b50829081616149575050508461448e565b5f805160206178fb8339815191525461603f90611c3090612ecd906001600160601b03166115ac565b90816160bb575b9761606f9261605f6160a5979695936108da9a9b61448e565b90816160aa575b50505042613e36565b61608961607a6108cd565b6001600160a01b039096168652565b4260208601526040850152606084015260016080840152611ec5565b615f1e565b6160b392615d25565b5f8080616066565b6160c486615c40565b80516160d1575b50616046565b9693909794919895925f5b8851811015616130578089616102611c308e614668610bb76020612fa060019988613c83565b8281616112575b505050016160dc565b612fd36161229161612894613c83565b8b615d25565b895f82616109565b509598949793965091949093919290919061606f6160cb565b61300192168b615d25565b616164919350611c309088613fc3565b915f616005565b9192946161b890949194615a1b8760018060a01b039261618e8487161515615783565b616199881515615e25565b6161a4821515615e80565b615a13615fdc615fd86004612e3a8d611ec5565b5f805160206178fb833981519152546161e190611c3090612ecd906001600160601b03166115ac565b9081616212575b926162009261605f6160a596936108da99989661448e565b926162096108cd565b33815293616089565b61621b86615c40565b8051616228575b506161e8565b95919793949096925f5b875181101561627a5780616256611c30614b3d610bb76020612fa06001978f613c83565b80616263575b5001616232565b61627490614b61612fd3848d613c83565b5f61625c565b509397929691955093929190616200616222565b1561629557565b60405162461bcd60e51b815260206004820152601d60248201527f41636365737320636f6e74726f6c2063616e6e6f74206265207a65726f0000006044820152606490fd5b307f00000000000000000000000000000000000000000000000000000000000000006001600160a01b031614806163cb575b15616335577f000000000000000000000000000000000000000000000000000000000000000090565b60405160208101907f8b73c3c69bb8fe3d512ecc4cf759cc79239f7b179b0ffacaa9a75d522b39400f82527f000000000000000000000000000000000000000000000000000000000000000060408201527f000000000000000000000000000000000000000000000000000000000000000060608201524660808201523060a082015260a081526163c58161088f565b51902090565b507f0000000000000000000000000000000000000000000000000000000000000000461461630c565b81519190604183036164245761641d9250602082015190606060408401519301515f1a90616da8565b9192909190565b50505f9160029190565b6004111561643857565b634e487b7160e01b5f52602160045260245ffd5b6164558161642e565b8061645e575050565b6164678161642e565b600181036164815760405163f645eedf60e01b8152600490fd5b61648a8161642e565b600281036164ab5760405163fce698f760e01b815260048101839052602490fd5b806164b760039261642e565b146164bf5750565b6040516335e2f38360e21b81526004810191909152602490fd5b919290928360018060a01b03806164f16016546104c9565b161515908161659e575b81616592575b5061655a575b9061651491819394617115565b5f5b8351811015616554578061652c60019286613c83565b5161654c61654461653d8487613c83565b5192611ea9565b918254613e36565b905501616516565b50509050565b5083515f9390156165755761656f8486613c83565b50616e20565b81929350908461651492616587614ba9565b949350909150616507565b9050841615155f616501565b5f91506164fb565b92919060018060a01b03806165bc6016546104c9565b161591821580616710575b80616709575b6166da575b6165dd8482886171e9565b5f5b8151811015613ad6576165f28183613c83565b516165fd8287613c83565b51888516159081156166bf5761661561654484611ea9565b90555b15908161664d575b5080616646575b8061663f575b616639576001016165df565b86617016565b508361662d565b505f616627565b608061665b61666292615478565b0151151590565b61666c575f616620565b60405162461bcd60e51b815260206004820152602560248201527f43616e6e6f74207472616e73666572206163746976656c792072656e746564206044820152643a37b5b2b760d91b6064820152608490fd5b6166d36166cb84611ea9565b91825461448e565b9055616618565b915f939183518510156166f857866166f28686613c83565b50617016565b91935091616704614ba9565b6165d2565b505f6165cd565b5081861615156165c7565b9392919361672a6016546104c9565b6001600160a01b03958187161591821580616875575b8061686a575b616826575b506167588582868661729a565b5f5b815181101561681c578061676f859284613c83565b518661677b838a613c83565b51848c16159081156167f95761679361654485611ea9565b90555b1593846167de575b600194806167d3575b806167cc575b6167bb575b5050500161675a565b6167c49261734e565b5f86866167b2565b50866167ad565b508b821615156167a7565b50506167ee608061665b83615478565b61666c57868661679e565b8c831615616808575b50616796565b6168146166cb85611ea9565b90555f616802565b5050505050509050565b945f97929691975b8851811015616856578061685088888861684a6001968f613c83565b5161702a565b0161682e565b509450949095616864614ba9565b5f61674b565b508785161515616746565b508784161515616740565b908160209103126104e6575161105e81610527565b909260a09261105e9594600180861b031683525f6020840152604083015260608201528160808201520190610c6f565b919261105e95949160a094600180871b038092168552166020840152604083015260608201528160808201520190610c6f565b3d15616922573d9061690982610ff2565b9161691760405193846108aa565b82523d5f602084013e565b606090565b9293919093843b616939575050505050565b60209161695c604051948593849363f23a6e6160e01b9889865260048601616895565b03815f6001600160a01b0388165af15f9181614d755750614d3e5782614d136168f8565b939290949194853b616995575b505050505050565b6169b8602093604051958694859463f23a6e6160e01b998a8752600487016168c5565b03815f6001600160a01b0388165af15f91816169f8575b506169dd5782614d136168f8565b6001600160e01b03191603614d5857505f808080808061698d565b616a1291925060203d602011614d9f57614d9081836108aa565b905f6169cf565b9160405192600184526020840152604083019160018352606084015260808301604052565b9193929093616a4f8282878661671b565b6001600160a01b03851680616a6657505050505050565b8151600103616a8f575093602080616a849601519201519233616980565b5f808080808061698d565b8594919293943b616aa6575b505050505050616a84565b616ace935f6020946040519687958694859363bc197c8160e01b9b8c8652336004870161740f565b03925af15f9181616b03575b50616ae85782614d136168f8565b6001600160e01b03191603614d5857505f8080808080616a9b565b616b1d91925060203d602011614d9f57614d9081836108aa565b905f616ada565b616b3190949391946155b6565b91825115615dcb575f5b8351811015616b9d57600190612710616b6b6001600160601b036020616b61858a613c83565b5101511689613fc3565b0480616b79575b5001616b3b565b616b9790838060a01b03616b8d8489613c83565b5151168686615cde565b5f616b72565b505050509050565b905f602091828151910182855af1156143c6575f513d616bf657506001600160a01b0381163b155b616bd45750565b604051635274afe760e01b81526001600160a01b039091166004820152602490fd5b60011415616bcd565b5f525f8051602061787b83398151915260205260405f2060ff6004820154169081616c28575090565b600291500154421090565b60ff8114616c715760ff811690601f8211616c5f5760405191616c558361083e565b8252602082015290565b604051632cd44ac360e21b8152600490fd5b50604051600954815f616c8383611fa8565b808352602093600190818116908115616cec5750600114616cad575b505061105e925003826108aa565b9093915060095f52815f20935f915b818310616cd457505061105e93508201015f80616c9f565b85548784018501529485019486945091830191616cbc565b91505061105e94925060ff191682840152151560051b8201015f80616c9f565b60ff8114616d2e5760ff811690601f8211616c5f5760405191616c558361083e565b50604051600a54815f616d4083611fa8565b808352602093600190818116908115616cec5750600114616d6957505061105e925003826108aa565b90939150600a5f52815f20935f915b818310616d9057505061105e93508201015f80616c9f565b85548784018501529485019486945091830191616d78565b91906fa2a8918ca85bafe22016d0b997e4df60600160ff1b038411616e15579160209360809260ff5f9560405194855216868401526040830152606082015282805260015afa15610c0c575f516001600160a01b03811615616e0b57905f905f90565b505f906001905f90565b5050505f9160039190565b60405162461bcd60e51b815260206004820152601a6024820152795472616e736665722066726f6d207a65726f206164647265737360301b6044820152606490fd5b15616e2057565b15616e7057565b60405162461bcd60e51b81526020600482015260186024820152775472616e7366657220746f207a65726f206164647265737360401b6044820152606490fd5b15616eb757565b60405162461bcd60e51b81526020600482015260186024820152775472616e7366657220746f2073616d65206164647265737360401b6044820152606490fd5b15616efe57565b60405162461bcd60e51b815260206004820152601c60248201527b21b0b73737ba103a3930b739b332b9103932b73a32b2103a37b5b2b760211b6044820152606490fd5b15616f4957565b60405162461bcd60e51b8152602060048201526015602482015274151c985b9cd9995c881b9bdd08185c1c1c9bdd9959605a1b6044820152606490fd5b15616f8d57565b60405162461bcd60e51b8152602060048201526017602482015276151c985b9cd9995c881b9bdd08185d5d1a1bdc9a5e9959604a1b6044820152606490fd5b15616fd357565b60405162461bcd60e51b815260206004820152601b60248201527a151c985b9cd9995c881c9bde585b1d1a595cc81b9bdd081c185a59602a1b6044820152606490fd5b616e70906001600160a01b03161515616e62565b9290916107239161709791906001600160a01b038086169161704d831515616e62565b61706682851661705e811515616e69565b841415616eb0565b61706f88616bff565b6170f7575b1680156170d8576170859114616f86565b604051928391602083019587876149ca565b5190206170b361466e6136866170ac84611f26565b5493611ef9565b51151590816170ce575b506170c55750565b6108da90616fcc565b905015155f6170bd565b503314617085575b6170f26170ed33866177b3565b616f42565b617085565b6171108361710a6114c261235d8c611ec5565b14616ef7565b617074565b919261712284838561748a565b5f90815b8351831015617169576171616001918460051b9061714f602080848c0101519389010151611f9a565b61715a838254613e36565b9055613e36565b920191617126565b91509261718261717d600593600554613e36565b600555565b6001600160a01b0316156171965750509050565b5f90815b83518310156171ce5760019083831b906171bf602080848b0101519388010151611f9a565b8281540390550192019161719a565b925050506171e191925060055403600555565b805f80616554565b9291926171f7848383617566565b6001600160a01b031615617250575b5f805b825182101561723e576001908260051b9061722f602080848a0101519387010151611f9a565b82815403905501910190617209565b9150506108da91925060055403600555565b5f805b82518210156172845761727c6001918360051b9061714f602080848b0101519388010151611f9a565b910190617253565b617295915061717d90600554613e36565b617206565b909392936172aa85848385617671565b6001600160a01b03918216156172fe575b16156172c657509050565b5f805b825182101561723e576001908260051b906172ef602080848a0101519387010151611f9a565b828154039055019101906172c9565b925f91825b84518410156173345761732c6001918560051b9061714f602080848d010151938a010151611f9a565b930192617303565b61734991935061717d90959295600554613e36565b6172bb565b9161072390617097906001600160a01b038481169061738790617372831515616e62565b831661737f811515616e69565b821415616eb0565b61739086616bff565b6173ad575b33036170e057604051928391602083019587876149ca565b6173c08161710a6114c261235d8a611ec5565b617395565b926173f361105e95936174019360018060a01b031686525f602087015260a0604087015260a0860190611706565b908482036060860152611706565b916080818403910152610c6f565b939061105e95936173f3916174019460018060a01b03809216885216602087015260a0604087015260a0860190611706565b90949392606092608083019660018060a01b03168352602083015260408201520152565b909161747c61105e93604084526040840190611706565b916020818403910152611706565b91909182518251908181036117f45750505f5b83518110156174f157600581901b84810160209081015191850101516001929184906001600160a01b0382166174d7575b5050500161749d565b6174e79161078861654492611e8d565b90555f83816174ce565b509160018151145f1461753b576020908101519101516040516001600160a01b03909316925f9233925f805160206177fb83398151915292918291617536918361391b565b0390a4565b5f805160206177db8339815191526175365f939460405191829160018060a01b031696339583617465565b92919080518251908181036117f45750505f5b81518110156175fe57600581901b82810160209081015191850101516001600160a01b0387166175ae575b5050600101617579565b6175bb8761078884611e8d565b548181106175df578761078860019594936175d7930393611e8d565b55905f6175a4565b8761115484846040519485946303dee4c560e01b865260048601617441565b50905f92939160018151148414617645576020908101519101516040516001600160a01b039093169233925f805160206177fb83398151915292829161753691908361391b565b6040516001600160a01b039093169233925f805160206177db8339815191529282916175369183617465565b93929180518351908181036117f45750505f5b815181101561773957600581901b82810160209081015191860101516001600160a01b03929185908985166176e1575b60019482166176c7575b50505001617684565b6176d79161078861654492611e8d565b90555f84816176be565b91929390506176f38961078884611e8d565b5483811061771a57918691846001969594036177128c61078885611e8d565b5594506176b4565b8961115484866040519485946303dee4c560e01b865260048601617441565b508051939493919291600103617783576020908101519101516040516001600160a01b03938416949093169233925f805160206177fb83398151915292829161753691908361391b565b6040516001600160a01b03938416949093169233925f805160206177db8339815191529282916175369183617465565b6001600160a01b03165f90815260026020526040902060ff916177d5916137a9565b54169056fe4a39dc06d4c0dbc64b70af90fd698a233a518aa5d07e595d983b8c0526c8f7fbc3d58168c5ae7397731d063d5bbf3d657854427343f4c083240f7aacaa2d0f62b4cfe1d8ea70adf14096f94f362b2c5a7d7e75a5308460ff461b34288fb2df72d329ff8a035c3ce5df2b0dae604d660c0d8783bf7e64be00c1d10db96c0b87b4797343f8d6a29aafeb3aaf0910a8973e0081c60c2f6c1f775cd9f76ea348fc1eefbf0e557c8acb6e3deb011ac697e5553b802e419ed4680395101c0ddc5e87232701fe1dc0d516a6094695be18e9b34a36ac386ec7694aec82980be40e1a9fc0b19546dff01e856fb3f010c267a7b1c60363cf8a4664e21cc89c26224620214e1aa44fcb526383bd2f7c6231f8c09a41edc5b654966336907d6f785a5b3d28921aa44fcb526383bd2f7c6231f8c09a41edc5b654966336907d6f785a5b3d288fde1159fbbeca73b2aca5752c42b257ca18171ae3b3d3bbf22c7938e3a961a0cb9387a595ac4be9038bbb9751abad8baa3dcf219dd9e19abb81552bd521fe35461aa44fcb526383bd2f7c6231f8c09a41edc5b654966336907d6f785a5b3d28931aa44fcb526383bd2f7c6231f8c09a41edc5b654966336907d6f785a5b3d28913b652633b3026fa70803ad50b58b0ae884cefe3497643f62c67c466f41a6e88d004137ac999875a62b0381e65f8832c0a903cf25418dd0c40107411aa55dc68710546b1a6f5245ff0ffa18c256b9e46859c585cbb473b453fcd4c2dc39ae08db1aa44fcb526383bd2f7c6231f8c09a41edc5b654966336907d6f785a5b3d289091ed440ea126ed5a21dfd1e9ad850a40d87c795aa239d6d1a8967347bee99790a26469706673582212209fa2881801d867529da3ba0aab3dca6c8700feac7cddbedd8b335c771da5f63a64736f6c634300081800332f8788117e7eff1d82e926ec794901d17c78024a50270940304540a733656f0dbb8a6a4669ba250d26cd7a459eca9d215f8307e33aebe50379bc5a3617ec3444ad3228b676f7d3cd4284a5443f17f1962b36e491b30a40b2405849e597ba5fb5","linkReferences":{}},"methodIdentifiers":{"DEFAULT_ADMIN_ROLE()":"a217fddf","OWNER_ROLE()":"e58378bb","PAYMENT_TOKEN()":"877c86fb","PLATFORM_ROLE()":"70824c5c","RENTER_ROLE()":"b97c9f77","_dummyGetApproved(uint256)":"81444338","_dummyTokenByIndex(uint256)":"906a8b2e","_getTotalSupply()":"82e1350a","balanceOf(address,uint256)":"00fdd58e","balanceOfBatch(address[],uint256[])":"4e1273f4","burn(uint256,uint256)":"b390c0ab","burnBatch(uint256[],uint256[])":"83ca4b6f","burnWithSignature(uint256,uint256,address,uint256,bytes)":"7dcb76cd","eip712Domain()":"84b0196e","endRental(uint256)":"97491d6f","endRentalWithSignature(uint256,address,uint256,bytes)":"35e4d0a9","exists(uint256)":"4f558e79","extendRental(uint256,uint256,uint256)":"c8a9aabc","extendRentalWithSignature(uint256,uint256,uint256,address,uint256,bytes)":"314cfd33","getMintRoyaltyReceivers(uint256)":"463dace0","getRentalInfo(uint256)":"27dc3fbd","getRoleAdmin(bytes32)":"248a9ca3","getRoyaltyInfo(uint256)":"b76c632b","getTotalMinted(uint256)":"ed26e34e","getTransferRoyaltyReceivers(uint256)":"5e27a775","grantRole(bytes32,address)":"2f2ff15d","hasActiveRentals(address)":"0daf4c97","hasRole(bytes32,address)":"91d14854","initiateTransferWithRoyalty(address,uint256,uint256)":"10c551c5","initiateTransferWithRoyaltyWithSignature(address,uint256,uint256,address,uint256,bytes)":"673c6085","isApprovedForAll(address,address)":"e985e9c5","isRented(uint256)":"aa15d40f","isTransferRoyaltyRequired(uint256,uint256)":"70f238d6","maxTotalSupply()":"2ab4d052","mint(address,uint256,uint256,string,(address,uint96)[])":"5ee297f1","mintBatch(address[],uint256[],uint256[],string[])":"087930ba","mintFor(address,uint256,uint256,string,(address,uint96)[])":"844cdded","nextTokenId()":"75794a3c","pause()":"8456cb59","paused()":"5c975abb","payTransferRoyalty(address,uint256,uint256)":"1eae6ed7","payTransferRoyaltyWithSignature(uint256,uint256,address,address,uint256,bytes)":"73997afa","paymentToken()":"3013ce29","platformAddress()":"dbe55e56","platformCommission()":"694e91b8","platformCommissionPercentage()":"92303e06","renounceRole(bytes32,address)":"36568abe","rentToken(uint256,uint256,uint256,address,address)":"d2d43dec","rentTokenWithSignature(uint256,uint256,uint256,address,address,uint256,bytes)":"8e24242a","revokeRole(bytes32,address)":"d547741f","royaltyInfo(uint256,uint256)":"2a55205a","royaltyPercentage()":"8a71bb2d","safeBatchTransferFrom(address,address,uint256[],uint256[],bytes)":"2eb2c2d6","safeTransferFrom(address,address,uint256,uint256,bytes)":"f242432a","sellToken(address,uint256,uint256,address)":"ce22958b","sellTokenWithSignature(address,uint256,uint256,address,uint256,bytes)":"05139a73","setApprovalForAll(address,bool)":"a22cb465","setBaseURI(string)":"55f804b3","setMintRoyalties((address,uint96)[])":"492ae5a3","setPlatformCommission(uint96,address)":"f249fd16","setPrice(uint256,uint256)":"f7d97577","setRoyaltyPercentage(uint96)":"9f6d68b0","setTokenMintRoyalties(uint256,(address,uint96)[])":"0a0a3515","setTokenTotalSupply(uint256,uint256)":"eabafe5d","setTokenTransferRoyalties(uint256,(address,uint96)[])":"e5f2e0cc","setTokenURI(uint256,string)":"162094c4","setTokenURIWithSignature(uint256,string,uint256,bytes)":"a2c98a19","setTotalSupply(uint256)":"f7ea7a3d","setTransferRoyalties((address,uint96)[])":"602481b6","supportsInterface(bytes4)":"01ffc9a7","tokenPrices(uint256)":"e5afe3e6","tokenURIs(uint256)":"6c8b703f","totalSupply()":"18160ddd","totalSupply(uint256)":"bd85b039","unpause()":"3f4ba83a","uri(uint256)":"0e89341c"},"id":41}